{
  "_format": "hh-sol-artifact-1",
  "contractName": "UnitTrust",
  "sourceName": "contracts/UnitTrust.sol",
  "abi": [
    {
      "anonymous": false,
      "inputs": [
        {
          "indexed": false,
          "internalType": "address",
          "name": "previousAdmin",
          "type": "address"
        },
        {
          "indexed": false,
          "internalType": "address",
          "name": "newAdmin",
          "type": "address"
        }
      ],
      "name": "AdminChanged",
      "type": "event"
    },
    {
      "anonymous": false,
      "inputs": [
        {
          "indexed": true,
          "internalType": "address",
          "name": "beacon",
          "type": "address"
        }
      ],
      "name": "BeaconUpgraded",
      "type": "event"
    },
    {
      "anonymous": false,
      "inputs": [
        {
          "indexed": false,
          "internalType": "uint8",
          "name": "version",
          "type": "uint8"
        }
      ],
      "name": "Initialized",
      "type": "event"
    },
    {
      "anonymous": false,
      "inputs": [
        {
          "indexed": true,
          "internalType": "address",
          "name": "previousOwner",
          "type": "address"
        },
        {
          "indexed": true,
          "internalType": "address",
          "name": "newOwner",
          "type": "address"
        }
      ],
      "name": "OwnershipTransferred",
      "type": "event"
    },
    {
      "anonymous": false,
      "inputs": [
        {
          "indexed": true,
          "internalType": "address",
          "name": "implementation",
          "type": "address"
        }
      ],
      "name": "Upgraded",
      "type": "event"
    },
    {
      "inputs": [
        {
          "internalType": "uint256",
          "name": "_amount",
          "type": "uint256"
        }
      ],
      "name": "closeUnitTrust",
      "outputs": [],
      "stateMutability": "payable",
      "type": "function"
    },
    {
      "inputs": [
        {
          "internalType": "uint256",
          "name": "_amount",
          "type": "uint256"
        }
      ],
      "name": "fundWithdraw",
      "outputs": [],
      "stateMutability": "payable",
      "type": "function"
    },
    {
      "inputs": [
        {
          "internalType": "address",
          "name": "_investor",
          "type": "address"
        }
      ],
      "name": "getInvestor",
      "outputs": [
        {
          "components": [
            {
              "internalType": "uint256",
              "name": "balance",
              "type": "uint256"
            },
            {
              "internalType": "uint256",
              "name": "salePrice",
              "type": "uint256"
            },
            {
              "internalType": "uint16",
              "name": "ownedUnits",
              "type": "uint16"
            },
            {
              "internalType": "uint16",
              "name": "saleUnits",
              "type": "uint16"
            },
            {
              "internalType": "bool",
              "name": "authorized",
              "type": "bool"
            }
          ],
          "internalType": "struct Investor",
          "name": "",
          "type": "tuple"
        }
      ],
      "stateMutability": "view",
      "type": "function"
    },
    {
      "inputs": [],
      "name": "getRemainingUnits",
      "outputs": [
        {
          "internalType": "uint256",
          "name": "",
          "type": "uint256"
        }
      ],
      "stateMutability": "view",
      "type": "function"
    },
    {
      "inputs": [],
      "name": "getTotalUnits",
      "outputs": [
        {
          "internalType": "uint256",
          "name": "",
          "type": "uint256"
        }
      ],
      "stateMutability": "view",
      "type": "function"
    },
    {
      "inputs": [],
      "name": "initialize",
      "outputs": [],
      "stateMutability": "nonpayable",
      "type": "function"
    },
    {
      "inputs": [
        {
          "internalType": "uint256",
          "name": "_amount",
          "type": "uint256"
        }
      ],
      "name": "investorWithdraw",
      "outputs": [],
      "stateMutability": "payable",
      "type": "function"
    },
    {
      "inputs": [],
      "name": "owner",
      "outputs": [
        {
          "internalType": "address",
          "name": "",
          "type": "address"
        }
      ],
      "stateMutability": "view",
      "type": "function"
    },
    {
      "inputs": [
        {
          "internalType": "uint16",
          "name": "_amount",
          "type": "uint16"
        },
        {
          "internalType": "uint256",
          "name": "_salePrice",
          "type": "uint256"
        }
      ],
      "name": "postUnit",
      "outputs": [],
      "stateMutability": "nonpayable",
      "type": "function"
    },
    {
      "inputs": [],
      "name": "proxiableUUID",
      "outputs": [
        {
          "internalType": "bytes32",
          "name": "",
          "type": "bytes32"
        }
      ],
      "stateMutability": "view",
      "type": "function"
    },
    {
      "inputs": [
        {
          "internalType": "uint16",
          "name": "_amount",
          "type": "uint16"
        }
      ],
      "name": "purchaseUnit",
      "outputs": [],
      "stateMutability": "payable",
      "type": "function"
    },
    {
      "inputs": [],
      "name": "renounceOwnership",
      "outputs": [],
      "stateMutability": "nonpayable",
      "type": "function"
    },
    {
      "inputs": [
        {
          "internalType": "address",
          "name": "newOwner",
          "type": "address"
        }
      ],
      "name": "transferOwnership",
      "outputs": [],
      "stateMutability": "nonpayable",
      "type": "function"
    },
    {
      "inputs": [
        {
          "internalType": "address",
          "name": "_seller",
          "type": "address"
        },
        {
          "internalType": "uint16",
          "name": "_amount",
          "type": "uint16"
        }
      ],
      "name": "transferUnit",
      "outputs": [],
      "stateMutability": "payable",
      "type": "function"
    },
    {
      "inputs": [
        {
          "internalType": "address",
          "name": "newImplementation",
          "type": "address"
        }
      ],
      "name": "upgradeTo",
      "outputs": [],
      "stateMutability": "nonpayable",
      "type": "function"
    },
    {
      "inputs": [
        {
          "internalType": "address",
          "name": "newImplementation",
          "type": "address"
        },
        {
          "internalType": "bytes",
          "name": "data",
          "type": "bytes"
        }
      ],
      "name": "upgradeToAndCall",
      "outputs": [],
      "stateMutability": "payable",
      "type": "function"
    }
  ],
  "bytecode": "0x60a06040523073ffffffffffffffffffffffffffffffffffffffff1660809073ffffffffffffffffffffffffffffffffffffffff1681525034801561004357600080fd5b50608051612d3461007b6000396000818161058e0152818161061d0152818161084f015281816108de015261098e0152612d346000f3fe6080604052600436106100f35760003560e01c80638129fc1c1161008a578063a754a70211610059578063a754a702146102a6578063cc57733d146102d1578063e6febc9b146102ed578063f2fde38b14610309576100f3565b80638129fc1c146101fc5780638da5cb5b146102135780638f35a75e1461023e57806393e4a0ca1461027b576100f3565b80634f1ef286116100c65780634f1ef2861461017557806352d1902d14610191578063587de58b146101bc578063715018a6146101e5576100f3565b8063242a37e8146100f8578063243f6337146101145780633659cfe6146101305780634ab53c2414610159575b600080fd5b610112600480360381019061010d9190611c77565b610332565b005b61012e60048036038101906101299190611cda565b610495565b005b34801561013c57600080fd5b5061015760048036038101906101529190611d65565b61058c565b005b610173600480360381019061016e9190611cda565b610715565b005b61018f600480360381019061018a9190611ed8565b61084d565b005b34801561019d57600080fd5b506101a661098a565b6040516101b39190611f4d565b60405180910390f35b3480156101c857600080fd5b506101e360048036038101906101de9190611f68565b610a43565b005b3480156101f157600080fd5b506101fa610c73565b005b34801561020857600080fd5b50610211610cfb565b005b34801561021f57600080fd5b50610228610dca565b6040516102359190611fb7565b60405180910390f35b34801561024a57600080fd5b5061026560048036038101906102609190611d65565b610df4565b6040516102729190612073565b60405180910390f35b34801561028757600080fd5b50610290610ebf565b60405161029d919061209d565b60405180910390f35b3480156102b257600080fd5b506102bb610ecc565b6040516102c8919061209d565b60405180910390f35b6102eb60048036038101906102e691906120b8565b610ed9565b005b61030760048036038101906103029190611cda565b611196565b005b34801561031557600080fd5b50610330600480360381019061032b9190611d65565b6112c4565b005b8061ffff1660c960020154101561037e576040517f08c379a000000000000000000000000000000000000000000000000000000000815260040161037590612155565b60405180910390fd5b60c960030154670de0b6b3a76400008261ffff1661039c91906121b8565b67ffffffffffffffff166103b091906121fa565b34146103f1576040517f08c379a00000000000000000000000000000000000000000000000000000000081526004016103e89061229c565b60405180910390fd5b8060c960050160003373ffffffffffffffffffffffffffffffffffffffff1673ffffffffffffffffffffffffffffffffffffffff16815260200190815260200160002060020160006101000a81548161ffff021916908361ffff1602179055508061ffff1660c9600201600082825461046a91906122bc565b9250508190555060c96003015460c9600401600082825461048b91906121fa565b9250508190555050565b61049d6113bc565b73ffffffffffffffffffffffffffffffffffffffff166104bb610dca565b73ffffffffffffffffffffffffffffffffffffffff1614610511576040517f08c379a00000000000000000000000000000000000000000000000000000000081526004016105089061233c565b60405180910390fd5b600060c9600201549050600060c9600201819055503373ffffffffffffffffffffffffffffffffffffffff166108fc8260c96000015461055191906122bc565b8461055c919061235c565b9081150290604051600060405180830381858888f19350505050158015610587573d6000803e3d6000fd5b505050565b7f000000000000000000000000000000000000000000000000000000000000000073ffffffffffffffffffffffffffffffffffffffff163073ffffffffffffffffffffffffffffffffffffffff16141561061b576040517f08c379a000000000000000000000000000000000000000000000000000000000815260040161061290612428565b60405180910390fd5b7f000000000000000000000000000000000000000000000000000000000000000073ffffffffffffffffffffffffffffffffffffffff1661065a6113c4565b73ffffffffffffffffffffffffffffffffffffffff16146106b0576040517f08c379a00000000000000000000000000000000000000000000000000000000081526004016106a7906124ba565b60405180910390fd5b6106b98161141b565b61071281600067ffffffffffffffff8111156106d8576106d7611dad565b5b6040519080825280601f01601f19166020018201604052801561070a5781602001600182028036833780820191505090505b50600061149a565b50565b61071d6113bc565b73ffffffffffffffffffffffffffffffffffffffff1661073b610dca565b73ffffffffffffffffffffffffffffffffffffffff1614610791576040517f08c379a00000000000000000000000000000000000000000000000000000000081526004016107889061233c565b60405180910390fd5b8060c96004015410156107d9576040517f08c379a00000000000000000000000000000000000000000000000000000000081526004016107d090612526565b60405180910390fd5b6107e760c960040154611608565b8060c960040160008282546107fc91906122bc565b925050819055503373ffffffffffffffffffffffffffffffffffffffff166108fc829081150290604051600060405180830381858888f19350505050158015610849573d6000803e3d6000fd5b5050565b7f000000000000000000000000000000000000000000000000000000000000000073ffffffffffffffffffffffffffffffffffffffff163073ffffffffffffffffffffffffffffffffffffffff1614156108dc576040517f08c379a00000000000000000000000000000000000000000000000000000000081526004016108d390612428565b60405180910390fd5b7f000000000000000000000000000000000000000000000000000000000000000073ffffffffffffffffffffffffffffffffffffffff1661091b6113c4565b73ffffffffffffffffffffffffffffffffffffffff1614610971576040517f08c379a0000000000000000000000000000000000000000000000000000000008152600401610968906124ba565b60405180910390fd5b61097a8261141b565b6109868282600161149a565b5050565b60007f000000000000000000000000000000000000000000000000000000000000000073ffffffffffffffffffffffffffffffffffffffff163073ffffffffffffffffffffffffffffffffffffffff1614610a1a576040517f08c379a0000000000000000000000000000000000000000000000000000000008152600401610a11906125b8565b60405180910390fd5b7f360894a13ba1a3210667c828492db98dca3e2076cc3735a920a3ca505d382bbc60001b905090565b8161ffff1660c960050160003373ffffffffffffffffffffffffffffffffffffffff1673ffffffffffffffffffffffffffffffffffffffff16815260200190815260200160002060020160009054906101000a900461ffff1661ffff161015610ae1576040517f08c379a0000000000000000000000000000000000000000000000000000000008152600401610ad890612624565b60405180910390fd5b8161ffff1660c9600201541015610b2d576040517f08c379a0000000000000000000000000000000000000000000000000000000008152600401610b2490612155565b60405180910390fd5b8160c960050160003373ffffffffffffffffffffffffffffffffffffffff1673ffffffffffffffffffffffffffffffffffffffff16815260200190815260200160002060020160008282829054906101000a900461ffff16610b8f9190612644565b92506101000a81548161ffff021916908361ffff1602179055508160c960050160003373ffffffffffffffffffffffffffffffffffffffff1673ffffffffffffffffffffffffffffffffffffffff16815260200190815260200160002060020160028282829054906101000a900461ffff16610c0b9190612678565b92506101000a81548161ffff021916908361ffff1602179055508060c960050160003373ffffffffffffffffffffffffffffffffffffffff1673ffffffffffffffffffffffffffffffffffffffff168152602001908152602001600020600101819055505050565b610c7b6113bc565b73ffffffffffffffffffffffffffffffffffffffff16610c99610dca565b73ffffffffffffffffffffffffffffffffffffffff1614610cef576040517f08c379a0000000000000000000000000000000000000000000000000000000008152600401610ce69061233c565b60405180910390fd5b610cf960006116a1565b565b6000610d076001611767565b90508015610d2b576001600060016101000a81548160ff0219169083151502179055505b610d33611857565b6103e860c9600001819055506103e860c960020181905550670de0b6b3a764000060c960010181905550662386f26fc1000060c9600301819055508015610dc75760008060016101000a81548160ff0219169083151502179055507f7f26b83ff96e1f2b6a682f133852f6798a09c465da95921460cefb38474024986001604051610dbe9190612702565b60405180910390a15b50565b6000609760009054906101000a900473ffffffffffffffffffffffffffffffffffffffff16905090565b610dfc611bf0565b60c960050160008373ffffffffffffffffffffffffffffffffffffffff1673ffffffffffffffffffffffffffffffffffffffff1681526020019081526020016000206040518060a001604052908160008201548152602001600182015481526020016002820160009054906101000a900461ffff1661ffff1661ffff1681526020016002820160029054906101000a900461ffff1661ffff1661ffff1681526020016002820160049054906101000a900460ff1615151515815250509050919050565b600060c960020154905090565b600060c960000154905090565b60c96003015460c960050160008473ffffffffffffffffffffffffffffffffffffffff1673ffffffffffffffffffffffffffffffffffffffff168152602001908152602001600020600101548261ffff16610f34919061235c565b610f3e91906121fa565b3414610f7f576040517f08c379a0000000000000000000000000000000000000000000000000000000008152600401610f769061229c565b60405180910390fd5b8061ffff1660c960050160008473ffffffffffffffffffffffffffffffffffffffff1673ffffffffffffffffffffffffffffffffffffffff16815260200190815260200160002060020160029054906101000a900461ffff1661ffff16101561101d576040517f08c379a000000000000000000000000000000000000000000000000000000000815260040161101490612769565b60405180910390fd5b3460c960050160008473ffffffffffffffffffffffffffffffffffffffff1673ffffffffffffffffffffffffffffffffffffffff168152602001908152602001600020600001600082825461107291906121fa565b925050819055508060c960050160008473ffffffffffffffffffffffffffffffffffffffff1673ffffffffffffffffffffffffffffffffffffffff16815260200190815260200160002060020160028282829054906101000a900461ffff166110db9190612644565b92506101000a81548161ffff021916908361ffff1602179055508060c960050160003373ffffffffffffffffffffffffffffffffffffffff1673ffffffffffffffffffffffffffffffffffffffff16815260200190815260200160002060020160008282829054906101000a900461ffff166111579190612678565b92506101000a81548161ffff021916908361ffff16021790555060c96003015460c9600401600082825461118b91906121fa565b925050819055505050565b8060c960050160003373ffffffffffffffffffffffffffffffffffffffff1673ffffffffffffffffffffffffffffffffffffffff16815260200190815260200160002060000154101561121e576040517f08c379a000000000000000000000000000000000000000000000000000000000815260040161121590612526565b60405180910390fd5b8060c960050160003373ffffffffffffffffffffffffffffffffffffffff1673ffffffffffffffffffffffffffffffffffffffff168152602001908152602001600020600001600082825461127391906122bc565b925050819055503373ffffffffffffffffffffffffffffffffffffffff166108fc829081150290604051600060405180830381858888f193505050501580156112c0573d6000803e3d6000fd5b5050565b6112cc6113bc565b73ffffffffffffffffffffffffffffffffffffffff166112ea610dca565b73ffffffffffffffffffffffffffffffffffffffff1614611340576040517f08c379a00000000000000000000000000000000000000000000000000000000081526004016113379061233c565b60405180910390fd5b600073ffffffffffffffffffffffffffffffffffffffff168173ffffffffffffffffffffffffffffffffffffffff1614156113b0576040517f08c379a00000000000000000000000000000000000000000000000000000000081526004016113a7906127fb565b60405180910390fd5b6113b9816116a1565b50565b600033905090565b60006113f27f360894a13ba1a3210667c828492db98dca3e2076cc3735a920a3ca505d382bbc60001b6118b0565b60000160009054906101000a900473ffffffffffffffffffffffffffffffffffffffff16905090565b6114236113bc565b73ffffffffffffffffffffffffffffffffffffffff16611441610dca565b73ffffffffffffffffffffffffffffffffffffffff1614611497576040517f08c379a000000000000000000000000000000000000000000000000000000000815260040161148e9061233c565b60405180910390fd5b50565b6114c67f4910fdfa16fed3260ed0e7147f7cc6da11a60208b5b9406d12a635614ffd914360001b6118ba565b60000160009054906101000a900460ff16156114ea576114e5836118c4565b611603565b8273ffffffffffffffffffffffffffffffffffffffff166352d1902d6040518163ffffffff1660e01b8152600401602060405180830381865afa92505050801561155257506040513d601f19601f8201168201806040525081019061154f9190612847565b60015b611591576040517f08c379a0000000000000000000000000000000000000000000000000000000008152600401611588906128e6565b60405180910390fd5b7f360894a13ba1a3210667c828492db98dca3e2076cc3735a920a3ca505d382bbc60001b81146115f6576040517f08c379a00000000000000000000000000000000000000000000000000000000081526004016115ed90612978565b60405180910390fd5b5061160283838361197d565b5b505050565b61169e8160405160240161161c919061209d565b6040516020818303038152906040527ff5b1bba9000000000000000000000000000000000000000000000000000000007bffffffffffffffffffffffffffffffffffffffffffffffffffffffff19166020820180517bffffffffffffffffffffffffffffffffffffffffffffffffffffffff83818316178352505050506119a9565b50565b6000609760009054906101000a900473ffffffffffffffffffffffffffffffffffffffff16905081609760006101000a81548173ffffffffffffffffffffffffffffffffffffffff021916908373ffffffffffffffffffffffffffffffffffffffff1602179055508173ffffffffffffffffffffffffffffffffffffffff168173ffffffffffffffffffffffffffffffffffffffff167f8be0079c531659141344cd1fd0a4f28419497f9722a3daafe3b4186f6b6457e060405160405180910390a35050565b60008060019054906101000a900460ff16156117de5760018260ff161480156117965750611794306119d2565b155b6117d5576040517f08c379a00000000000000000000000000000000000000000000000000000000081526004016117cc90612a0a565b60405180910390fd5b60009050611852565b8160ff1660008054906101000a900460ff1660ff1610611833576040517f08c379a000000000000000000000000000000000000000000000000000000000815260040161182a90612a0a565b60405180910390fd5b816000806101000a81548160ff021916908360ff160217905550600190505b919050565b600060019054906101000a900460ff166118a6576040517f08c379a000000000000000000000000000000000000000000000000000000000815260040161189d90612a9c565b60405180910390fd5b6118ae6119f5565b565b6000819050919050565b6000819050919050565b6118cd816119d2565b61190c576040517f08c379a000000000000000000000000000000000000000000000000000000000815260040161190390612b2e565b60405180910390fd5b806119397f360894a13ba1a3210667c828492db98dca3e2076cc3735a920a3ca505d382bbc60001b6118b0565b60000160006101000a81548173ffffffffffffffffffffffffffffffffffffffff021916908373ffffffffffffffffffffffffffffffffffffffff16021790555050565b61198683611a56565b6000825111806119935750805b156119a4576119a28383611aa5565b505b505050565b60008151905060006a636f6e736f6c652e6c6f679050602083016000808483855afa5050505050565b6000808273ffffffffffffffffffffffffffffffffffffffff163b119050919050565b600060019054906101000a900460ff16611a44576040517f08c379a0000000000000000000000000000000000000000000000000000000008152600401611a3b90612a9c565b60405180910390fd5b611a54611a4f6113bc565b6116a1565b565b611a5f816118c4565b8073ffffffffffffffffffffffffffffffffffffffff167fbc7cd75a20ee27fd9adebab32041f755214dbc6bffa90cc0225b39da2e5c2d3b60405160405180910390a250565b6060611ab0836119d2565b611aef576040517f08c379a0000000000000000000000000000000000000000000000000000000008152600401611ae690612bc0565b60405180910390fd5b6000808473ffffffffffffffffffffffffffffffffffffffff1684604051611b179190612c5a565b600060405180830381855af49150503d8060008114611b52576040519150601f19603f3d011682016040523d82523d6000602084013e611b57565b606091505b5091509150611b7f8282604051806060016040528060278152602001612cd860279139611b89565b9250505092915050565b60608315611b9957829050611be9565b600083511115611bac5782518084602001fd5b816040517f08c379a0000000000000000000000000000000000000000000000000000000008152600401611be09190612cb5565b60405180910390fd5b9392505050565b6040518060a001604052806000815260200160008152602001600061ffff168152602001600061ffff1681526020016000151581525090565b6000604051905090565b600080fd5b600080fd5b600061ffff82169050919050565b611c5481611c3d565b8114611c5f57600080fd5b50565b600081359050611c7181611c4b565b92915050565b600060208284031215611c8d57611c8c611c33565b5b6000611c9b84828501611c62565b91505092915050565b6000819050919050565b611cb781611ca4565b8114611cc257600080fd5b50565b600081359050611cd481611cae565b92915050565b600060208284031215611cf057611cef611c33565b5b6000611cfe84828501611cc5565b91505092915050565b600073ffffffffffffffffffffffffffffffffffffffff82169050919050565b6000611d3282611d07565b9050919050565b611d4281611d27565b8114611d4d57600080fd5b50565b600081359050611d5f81611d39565b92915050565b600060208284031215611d7b57611d7a611c33565b5b6000611d8984828501611d50565b91505092915050565b600080fd5b600080fd5b6000601f19601f8301169050919050565b7f4e487b7100000000000000000000000000000000000000000000000000000000600052604160045260246000fd5b611de582611d9c565b810181811067ffffffffffffffff82111715611e0457611e03611dad565b5b80604052505050565b6000611e17611c29565b9050611e238282611ddc565b919050565b600067ffffffffffffffff821115611e4357611e42611dad565b5b611e4c82611d9c565b9050602081019050919050565b82818337600083830152505050565b6000611e7b611e7684611e28565b611e0d565b905082815260208101848484011115611e9757611e96611d97565b5b611ea2848285611e59565b509392505050565b600082601f830112611ebf57611ebe611d92565b5b8135611ecf848260208601611e68565b91505092915050565b60008060408385031215611eef57611eee611c33565b5b6000611efd85828601611d50565b925050602083013567ffffffffffffffff811115611f1e57611f1d611c38565b5b611f2a85828601611eaa565b9150509250929050565b6000819050919050565b611f4781611f34565b82525050565b6000602082019050611f626000830184611f3e565b92915050565b60008060408385031215611f7f57611f7e611c33565b5b6000611f8d85828601611c62565b9250506020611f9e85828601611cc5565b9150509250929050565b611fb181611d27565b82525050565b6000602082019050611fcc6000830184611fa8565b92915050565b611fdb81611ca4565b82525050565b611fea81611c3d565b82525050565b60008115159050919050565b61200581611ff0565b82525050565b60a0820160008201516120216000850182611fd2565b5060208201516120346020850182611fd2565b5060408201516120476040850182611fe1565b50606082015161205a6060850182611fe1565b50608082015161206d6080850182611ffc565b50505050565b600060a082019050612088600083018461200b565b92915050565b61209781611ca4565b82525050565b60006020820190506120b2600083018461208e565b92915050565b600080604083850312156120cf576120ce611c33565b5b60006120dd85828601611d50565b92505060206120ee85828601611c62565b9150509250929050565b600082825260208201905092915050565b7f4e6f20656e6f75676820756e6974730000000000000000000000000000000000600082015250565b600061213f600f836120f8565b915061214a82612109565b602082019050919050565b6000602082019050818103600083015261216e81612132565b9050919050565b600067ffffffffffffffff82169050919050565b7f4e487b7100000000000000000000000000000000000000000000000000000000600052601160045260246000fd5b60006121c382612175565b91506121ce83612175565b92508167ffffffffffffffff04831182151516156121ef576121ee612189565b5b828202905092915050565b600061220582611ca4565b915061221083611ca4565b9250827fffffffffffffffffffffffffffffffffffffffffffffffffffffffffffffffff0382111561224557612244612189565b5b828201905092915050565b7f496e636f727265637420616d6f756e742073656e740000000000000000000000600082015250565b60006122866015836120f8565b915061229182612250565b602082019050919050565b600060208201905081810360008301526122b581612279565b9050919050565b60006122c782611ca4565b91506122d283611ca4565b9250828210156122e5576122e4612189565b5b828203905092915050565b7f4f776e61626c653a2063616c6c6572206973206e6f7420746865206f776e6572600082015250565b60006123266020836120f8565b9150612331826122f0565b602082019050919050565b6000602082019050818103600083015261235581612319565b9050919050565b600061236782611ca4565b915061237283611ca4565b9250817fffffffffffffffffffffffffffffffffffffffffffffffffffffffffffffffff04831182151516156123ab576123aa612189565b5b828202905092915050565b7f46756e6374696f6e206d7573742062652063616c6c6564207468726f7567682060008201527f64656c656761746563616c6c0000000000000000000000000000000000000000602082015250565b6000612412602c836120f8565b915061241d826123b6565b604082019050919050565b6000602082019050818103600083015261244181612405565b9050919050565b7f46756e6374696f6e206d7573742062652063616c6c6564207468726f7567682060008201527f6163746976652070726f78790000000000000000000000000000000000000000602082015250565b60006124a4602c836120f8565b91506124af82612448565b604082019050919050565b600060208201905081810360008301526124d381612497565b9050919050565b7f4e6f7420656e6f7567682066756e647300000000000000000000000000000000600082015250565b60006125106010836120f8565b915061251b826124da565b602082019050919050565b6000602082019050818103600083015261253f81612503565b9050919050565b7f555550535570677261646561626c653a206d757374206e6f742062652063616c60008201527f6c6564207468726f7567682064656c656761746563616c6c0000000000000000602082015250565b60006125a26038836120f8565b91506125ad82612546565b604082019050919050565b600060208201905081810360008301526125d181612595565b9050919050565b7f4e6f7420656e6f75676820756e69747300000000000000000000000000000000600082015250565b600061260e6010836120f8565b9150612619826125d8565b602082019050919050565b6000602082019050818103600083015261263d81612601565b9050919050565b600061264f82611c3d565b915061265a83611c3d565b92508282101561266d5761266c612189565b5b828203905092915050565b600061268382611c3d565b915061268e83611c3d565b92508261ffff038211156126a5576126a4612189565b5b828201905092915050565b6000819050919050565b600060ff82169050919050565b6000819050919050565b60006126ec6126e76126e2846126b0565b6126c7565b6126ba565b9050919050565b6126fc816126d1565b82525050565b600060208201905061271760008301846126f3565b92915050565b7f4e6f7420656e6f75676820756e69747320666f722073616c6500000000000000600082015250565b60006127536019836120f8565b915061275e8261271d565b602082019050919050565b6000602082019050818103600083015261278281612746565b9050919050565b7f4f776e61626c653a206e6577206f776e657220697320746865207a65726f206160008201527f6464726573730000000000000000000000000000000000000000000000000000602082015250565b60006127e56026836120f8565b91506127f082612789565b604082019050919050565b60006020820190508181036000830152612814816127d8565b9050919050565b61282481611f34565b811461282f57600080fd5b50565b6000815190506128418161281b565b92915050565b60006020828403121561285d5761285c611c33565b5b600061286b84828501612832565b91505092915050565b7f45524331393637557067726164653a206e657720696d706c656d656e7461746960008201527f6f6e206973206e6f742055555053000000000000000000000000000000000000602082015250565b60006128d0602e836120f8565b91506128db82612874565b604082019050919050565b600060208201905081810360008301526128ff816128c3565b9050919050565b7f45524331393637557067726164653a20756e737570706f727465642070726f7860008201527f6961626c65555549440000000000000000000000000000000000000000000000602082015250565b60006129626029836120f8565b915061296d82612906565b604082019050919050565b6000602082019050818103600083015261299181612955565b9050919050565b7f496e697469616c697a61626c653a20636f6e747261637420697320616c72656160008201527f647920696e697469616c697a6564000000000000000000000000000000000000602082015250565b60006129f4602e836120f8565b91506129ff82612998565b604082019050919050565b60006020820190508181036000830152612a23816129e7565b9050919050565b7f496e697469616c697a61626c653a20636f6e7472616374206973206e6f74206960008201527f6e697469616c697a696e67000000000000000000000000000000000000000000602082015250565b6000612a86602b836120f8565b9150612a9182612a2a565b604082019050919050565b60006020820190508181036000830152612ab581612a79565b9050919050565b7f455243313936373a206e657720696d706c656d656e746174696f6e206973206e60008201527f6f74206120636f6e747261637400000000000000000000000000000000000000602082015250565b6000612b18602d836120f8565b9150612b2382612abc565b604082019050919050565b60006020820190508181036000830152612b4781612b0b565b9050919050565b7f416464726573733a2064656c65676174652063616c6c20746f206e6f6e2d636f60008201527f6e74726163740000000000000000000000000000000000000000000000000000602082015250565b6000612baa6026836120f8565b9150612bb582612b4e565b604082019050919050565b60006020820190508181036000830152612bd981612b9d565b9050919050565b600081519050919050565b600081905092915050565b60005b83811015612c14578082015181840152602081019050612bf9565b83811115612c23576000848401525b50505050565b6000612c3482612be0565b612c3e8185612beb565b9350612c4e818560208601612bf6565b80840191505092915050565b6000612c668284612c29565b915081905092915050565b600081519050919050565b6000612c8782612c71565b612c9181856120f8565b9350612ca1818560208601612bf6565b612caa81611d9c565b840191505092915050565b60006020820190508181036000830152612ccf8184612c7c565b90509291505056fe416464726573733a206c6f772d6c6576656c2064656c65676174652063616c6c206661696c6564a264697066735822122067dca438e1a3cc5fd9d62f1ec8e0f09ad85209f0e684421c91fe0b56eaceb45964736f6c634300080a0033",
  "linkReferences": {},
  "deployedLinkReferences": {}
}