{
  "_format": "hh-sol-artifact-1",
  "contractName": "UnitTrust",
  "sourceName": "contracts/UnitTrust.sol",
  "abi": [
    {
      "anonymous": false,
      "inputs": [
        {
          "indexed": false,
          "internalType": "address",
          "name": "previousAdmin",
          "type": "address"
        },
        {
          "indexed": false,
          "internalType": "address",
          "name": "newAdmin",
          "type": "address"
        }
      ],
      "name": "AdminChanged",
      "type": "event"
    },
    {
      "anonymous": false,
      "inputs": [
        {
          "indexed": true,
          "internalType": "address",
          "name": "beacon",
          "type": "address"
        }
      ],
      "name": "BeaconUpgraded",
      "type": "event"
    },
    {
      "anonymous": false,
      "inputs": [
        {
          "indexed": false,
          "internalType": "uint8",
          "name": "version",
          "type": "uint8"
        }
      ],
      "name": "Initialized",
      "type": "event"
    },
    {
      "anonymous": false,
      "inputs": [
        {
          "indexed": true,
          "internalType": "address",
          "name": "previousOwner",
          "type": "address"
        },
        {
          "indexed": true,
          "internalType": "address",
          "name": "newOwner",
          "type": "address"
        }
      ],
      "name": "OwnershipTransferred",
      "type": "event"
    },
    {
      "anonymous": false,
      "inputs": [
        {
          "indexed": true,
          "internalType": "address",
          "name": "implementation",
          "type": "address"
        }
      ],
      "name": "Upgraded",
      "type": "event"
    },
    {
      "inputs": [
        {
          "internalType": "uint256",
          "name": "_amount",
          "type": "uint256"
        }
      ],
      "name": "closeUnitTrust",
      "outputs": [],
      "stateMutability": "payable",
      "type": "function"
    },
    {
      "inputs": [
        {
          "internalType": "uint256",
          "name": "_amount",
          "type": "uint256"
        }
      ],
      "name": "fundWithdraw",
      "outputs": [],
      "stateMutability": "payable",
      "type": "function"
    },
    {
      "inputs": [
        {
          "internalType": "address",
          "name": "_investor",
          "type": "address"
        }
      ],
      "name": "getInvestor",
      "outputs": [
        {
          "components": [
            {
              "internalType": "uint256",
              "name": "balance",
              "type": "uint256"
            },
            {
              "internalType": "uint256",
              "name": "salePrice",
              "type": "uint256"
            },
            {
              "internalType": "uint16",
              "name": "ownedUnits",
              "type": "uint16"
            },
            {
              "internalType": "uint16",
              "name": "saleUnits",
              "type": "uint16"
            },
            {
              "internalType": "bool",
              "name": "authorized",
              "type": "bool"
            }
          ],
          "internalType": "struct Investor",
          "name": "",
          "type": "tuple"
        }
      ],
      "stateMutability": "view",
      "type": "function"
    },
    {
      "inputs": [],
      "name": "getRemainingUnits",
      "outputs": [
        {
          "internalType": "uint256",
          "name": "",
          "type": "uint256"
        }
      ],
      "stateMutability": "view",
      "type": "function"
    },
    {
      "inputs": [],
      "name": "getTotalUnits",
      "outputs": [
        {
          "internalType": "uint256",
          "name": "",
          "type": "uint256"
        }
      ],
      "stateMutability": "view",
      "type": "function"
    },
    {
      "inputs": [],
      "name": "getUnitPrice",
      "outputs": [
        {
          "internalType": "uint256",
          "name": "",
          "type": "uint256"
        }
      ],
      "stateMutability": "view",
      "type": "function"
    },
    {
      "inputs": [],
      "name": "initialize",
      "outputs": [],
      "stateMutability": "nonpayable",
      "type": "function"
    },
    {
      "inputs": [
        {
          "internalType": "uint256",
          "name": "_amount",
          "type": "uint256"
        }
      ],
      "name": "investorWithdraw",
      "outputs": [],
      "stateMutability": "payable",
      "type": "function"
    },
    {
      "inputs": [],
      "name": "owner",
      "outputs": [
        {
          "internalType": "address",
          "name": "",
          "type": "address"
        }
      ],
      "stateMutability": "view",
      "type": "function"
    },
    {
      "inputs": [
        {
          "internalType": "uint16",
          "name": "_amount",
          "type": "uint16"
        },
        {
          "internalType": "uint256",
          "name": "_salePrice",
          "type": "uint256"
        }
      ],
      "name": "postUnit",
      "outputs": [],
      "stateMutability": "nonpayable",
      "type": "function"
    },
    {
      "inputs": [],
      "name": "proxiableUUID",
      "outputs": [
        {
          "internalType": "bytes32",
          "name": "",
          "type": "bytes32"
        }
      ],
      "stateMutability": "view",
      "type": "function"
    },
    {
      "inputs": [
        {
          "internalType": "uint16",
          "name": "_amount",
          "type": "uint16"
        }
      ],
      "name": "purchaseUnit",
      "outputs": [],
      "stateMutability": "payable",
      "type": "function"
    },
    {
      "inputs": [],
      "name": "renounceOwnership",
      "outputs": [],
      "stateMutability": "nonpayable",
      "type": "function"
    },
    {
      "inputs": [
        {
          "internalType": "address",
          "name": "newOwner",
          "type": "address"
        }
      ],
      "name": "transferOwnership",
      "outputs": [],
      "stateMutability": "nonpayable",
      "type": "function"
    },
    {
      "inputs": [
        {
          "internalType": "address",
          "name": "_seller",
          "type": "address"
        },
        {
          "internalType": "uint16",
          "name": "_amount",
          "type": "uint16"
        }
      ],
      "name": "transferUnit",
      "outputs": [],
      "stateMutability": "payable",
      "type": "function"
    },
    {
      "inputs": [
        {
          "internalType": "address",
          "name": "newImplementation",
          "type": "address"
        }
      ],
      "name": "upgradeTo",
      "outputs": [],
      "stateMutability": "nonpayable",
      "type": "function"
    },
    {
      "inputs": [
        {
          "internalType": "address",
          "name": "newImplementation",
          "type": "address"
        },
        {
          "internalType": "bytes",
          "name": "data",
          "type": "bytes"
        }
      ],
      "name": "upgradeToAndCall",
      "outputs": [],
      "stateMutability": "payable",
      "type": "function"
    }
  ],
  "bytecode": "0x60a06040523073ffffffffffffffffffffffffffffffffffffffff1660809073ffffffffffffffffffffffffffffffffffffffff1681525034801561004357600080fd5b50608051612d7761007b600039600081816105d101528181610660015281816108920152818161092101526109d10152612d776000f3fe6080604052600436106100fe5760003560e01c8063715018a61161009557806393e4a0ca1161006457806393e4a0ca146102b1578063a754a702146102dc578063cc57733d14610307578063e6febc9b14610323578063f2fde38b1461033f576100fe565b8063715018a61461021b5780638129fc1c146102325780638da5cb5b146102495780638f35a75e14610274576100fe565b80634ab53c24116100d15780634ab53c241461018f5780634f1ef286146101ab57806352d1902d146101c7578063587de58b146101f2576100fe565b8063012a33aa14610103578063242a37e81461012e578063243f63371461014a5780633659cfe614610166575b600080fd5b34801561010f57600080fd5b50610118610368565b6040516101259190611c85565b60405180910390f35b61014860048036038101906101439190611cee565b610375565b005b610164600480360381019061015f9190611d47565b6104d8565b005b34801561017257600080fd5b5061018d60048036038101906101889190611dd2565b6105cf565b005b6101a960048036038101906101a49190611d47565b610758565b005b6101c560048036038101906101c09190611f45565b610890565b005b3480156101d357600080fd5b506101dc6109cd565b6040516101e99190611fba565b60405180910390f35b3480156101fe57600080fd5b5061021960048036038101906102149190611fd5565b610a86565b005b34801561022757600080fd5b50610230610cb6565b005b34801561023e57600080fd5b50610247610d3e565b005b34801561025557600080fd5b5061025e610e0d565b60405161026b9190612024565b60405180910390f35b34801561028057600080fd5b5061029b60048036038101906102969190611dd2565b610e37565b6040516102a891906120e0565b60405180910390f35b3480156102bd57600080fd5b506102c6610f02565b6040516102d39190611c85565b60405180910390f35b3480156102e857600080fd5b506102f1610f0f565b6040516102fe9190611c85565b60405180910390f35b610321600480360381019061031c91906120fb565b610f1c565b005b61033d60048036038101906103389190611d47565b6111d9565b005b34801561034b57600080fd5b5061036660048036038101906103619190611dd2565b611307565b005b600060c960010154905090565b8061ffff1660c96002015410156103c1576040517f08c379a00000000000000000000000000000000000000000000000000000000081526004016103b890612198565b60405180910390fd5b60c960030154670de0b6b3a76400008261ffff166103df91906121fb565b67ffffffffffffffff166103f3919061223d565b3414610434576040517f08c379a000000000000000000000000000000000000000000000000000000000815260040161042b906122df565b60405180910390fd5b8060c960050160003373ffffffffffffffffffffffffffffffffffffffff1673ffffffffffffffffffffffffffffffffffffffff16815260200190815260200160002060020160006101000a81548161ffff021916908361ffff1602179055508061ffff1660c960020160008282546104ad91906122ff565b9250508190555060c96003015460c960040160008282546104ce919061223d565b9250508190555050565b6104e06113ff565b73ffffffffffffffffffffffffffffffffffffffff166104fe610e0d565b73ffffffffffffffffffffffffffffffffffffffff1614610554576040517f08c379a000000000000000000000000000000000000000000000000000000000815260040161054b9061237f565b60405180910390fd5b600060c9600201549050600060c9600201819055503373ffffffffffffffffffffffffffffffffffffffff166108fc8260c96000015461059491906122ff565b8461059f919061239f565b9081150290604051600060405180830381858888f193505050501580156105ca573d6000803e3d6000fd5b505050565b7f000000000000000000000000000000000000000000000000000000000000000073ffffffffffffffffffffffffffffffffffffffff163073ffffffffffffffffffffffffffffffffffffffff16141561065e576040517f08c379a00000000000000000000000000000000000000000000000000000000081526004016106559061246b565b60405180910390fd5b7f000000000000000000000000000000000000000000000000000000000000000073ffffffffffffffffffffffffffffffffffffffff1661069d611407565b73ffffffffffffffffffffffffffffffffffffffff16146106f3576040517f08c379a00000000000000000000000000000000000000000000000000000000081526004016106ea906124fd565b60405180910390fd5b6106fc8161145e565b61075581600067ffffffffffffffff81111561071b5761071a611e1a565b5b6040519080825280601f01601f19166020018201604052801561074d5781602001600182028036833780820191505090505b5060006114dd565b50565b6107606113ff565b73ffffffffffffffffffffffffffffffffffffffff1661077e610e0d565b73ffffffffffffffffffffffffffffffffffffffff16146107d4576040517f08c379a00000000000000000000000000000000000000000000000000000000081526004016107cb9061237f565b60405180910390fd5b8060c960040154101561081c576040517f08c379a000000000000000000000000000000000000000000000000000000000815260040161081390612569565b60405180910390fd5b61082a60c96004015461164b565b8060c9600401600082825461083f91906122ff565b925050819055503373ffffffffffffffffffffffffffffffffffffffff166108fc829081150290604051600060405180830381858888f1935050505015801561088c573d6000803e3d6000fd5b5050565b7f000000000000000000000000000000000000000000000000000000000000000073ffffffffffffffffffffffffffffffffffffffff163073ffffffffffffffffffffffffffffffffffffffff16141561091f576040517f08c379a00000000000000000000000000000000000000000000000000000000081526004016109169061246b565b60405180910390fd5b7f000000000000000000000000000000000000000000000000000000000000000073ffffffffffffffffffffffffffffffffffffffff1661095e611407565b73ffffffffffffffffffffffffffffffffffffffff16146109b4576040517f08c379a00000000000000000000000000000000000000000000000000000000081526004016109ab906124fd565b60405180910390fd5b6109bd8261145e565b6109c9828260016114dd565b5050565b60007f000000000000000000000000000000000000000000000000000000000000000073ffffffffffffffffffffffffffffffffffffffff163073ffffffffffffffffffffffffffffffffffffffff1614610a5d576040517f08c379a0000000000000000000000000000000000000000000000000000000008152600401610a54906125fb565b60405180910390fd5b7f360894a13ba1a3210667c828492db98dca3e2076cc3735a920a3ca505d382bbc60001b905090565b8161ffff1660c960050160003373ffffffffffffffffffffffffffffffffffffffff1673ffffffffffffffffffffffffffffffffffffffff16815260200190815260200160002060020160009054906101000a900461ffff1661ffff161015610b24576040517f08c379a0000000000000000000000000000000000000000000000000000000008152600401610b1b90612667565b60405180910390fd5b8161ffff1660c9600201541015610b70576040517f08c379a0000000000000000000000000000000000000000000000000000000008152600401610b6790612198565b60405180910390fd5b8160c960050160003373ffffffffffffffffffffffffffffffffffffffff1673ffffffffffffffffffffffffffffffffffffffff16815260200190815260200160002060020160008282829054906101000a900461ffff16610bd29190612687565b92506101000a81548161ffff021916908361ffff1602179055508160c960050160003373ffffffffffffffffffffffffffffffffffffffff1673ffffffffffffffffffffffffffffffffffffffff16815260200190815260200160002060020160028282829054906101000a900461ffff16610c4e91906126bb565b92506101000a81548161ffff021916908361ffff1602179055508060c960050160003373ffffffffffffffffffffffffffffffffffffffff1673ffffffffffffffffffffffffffffffffffffffff168152602001908152602001600020600101819055505050565b610cbe6113ff565b73ffffffffffffffffffffffffffffffffffffffff16610cdc610e0d565b73ffffffffffffffffffffffffffffffffffffffff1614610d32576040517f08c379a0000000000000000000000000000000000000000000000000000000008152600401610d299061237f565b60405180910390fd5b610d3c60006116e4565b565b6000610d4a60016117aa565b90508015610d6e576001600060016101000a81548160ff0219169083151502179055505b610d7661189a565b6103e860c9600001819055506103e860c960020181905550670de0b6b3a764000060c960010181905550662386f26fc1000060c9600301819055508015610e0a5760008060016101000a81548160ff0219169083151502179055507f7f26b83ff96e1f2b6a682f133852f6798a09c465da95921460cefb38474024986001604051610e019190612745565b60405180910390a15b50565b6000609760009054906101000a900473ffffffffffffffffffffffffffffffffffffffff16905090565b610e3f611c33565b60c960050160008373ffffffffffffffffffffffffffffffffffffffff1673ffffffffffffffffffffffffffffffffffffffff1681526020019081526020016000206040518060a001604052908160008201548152602001600182015481526020016002820160009054906101000a900461ffff1661ffff1661ffff1681526020016002820160029054906101000a900461ffff1661ffff1661ffff1681526020016002820160049054906101000a900460ff1615151515815250509050919050565b600060c960020154905090565b600060c960000154905090565b60c96003015460c960050160008473ffffffffffffffffffffffffffffffffffffffff1673ffffffffffffffffffffffffffffffffffffffff168152602001908152602001600020600101548261ffff16610f77919061239f565b610f81919061223d565b3414610fc2576040517f08c379a0000000000000000000000000000000000000000000000000000000008152600401610fb9906122df565b60405180910390fd5b8061ffff1660c960050160008473ffffffffffffffffffffffffffffffffffffffff1673ffffffffffffffffffffffffffffffffffffffff16815260200190815260200160002060020160029054906101000a900461ffff1661ffff161015611060576040517f08c379a0000000000000000000000000000000000000000000000000000000008152600401611057906127ac565b60405180910390fd5b3460c960050160008473ffffffffffffffffffffffffffffffffffffffff1673ffffffffffffffffffffffffffffffffffffffff16815260200190815260200160002060000160008282546110b5919061223d565b925050819055508060c960050160008473ffffffffffffffffffffffffffffffffffffffff1673ffffffffffffffffffffffffffffffffffffffff16815260200190815260200160002060020160028282829054906101000a900461ffff1661111e9190612687565b92506101000a81548161ffff021916908361ffff1602179055508060c960050160003373ffffffffffffffffffffffffffffffffffffffff1673ffffffffffffffffffffffffffffffffffffffff16815260200190815260200160002060020160008282829054906101000a900461ffff1661119a91906126bb565b92506101000a81548161ffff021916908361ffff16021790555060c96003015460c960040160008282546111ce919061223d565b925050819055505050565b8060c960050160003373ffffffffffffffffffffffffffffffffffffffff1673ffffffffffffffffffffffffffffffffffffffff168152602001908152602001600020600001541015611261576040517f08c379a000000000000000000000000000000000000000000000000000000000815260040161125890612569565b60405180910390fd5b8060c960050160003373ffffffffffffffffffffffffffffffffffffffff1673ffffffffffffffffffffffffffffffffffffffff16815260200190815260200160002060000160008282546112b691906122ff565b925050819055503373ffffffffffffffffffffffffffffffffffffffff166108fc829081150290604051600060405180830381858888f19350505050158015611303573d6000803e3d6000fd5b5050565b61130f6113ff565b73ffffffffffffffffffffffffffffffffffffffff1661132d610e0d565b73ffffffffffffffffffffffffffffffffffffffff1614611383576040517f08c379a000000000000000000000000000000000000000000000000000000000815260040161137a9061237f565b60405180910390fd5b600073ffffffffffffffffffffffffffffffffffffffff168173ffffffffffffffffffffffffffffffffffffffff1614156113f3576040517f08c379a00000000000000000000000000000000000000000000000000000000081526004016113ea9061283e565b60405180910390fd5b6113fc816116e4565b50565b600033905090565b60006114357f360894a13ba1a3210667c828492db98dca3e2076cc3735a920a3ca505d382bbc60001b6118f3565b60000160009054906101000a900473ffffffffffffffffffffffffffffffffffffffff16905090565b6114666113ff565b73ffffffffffffffffffffffffffffffffffffffff16611484610e0d565b73ffffffffffffffffffffffffffffffffffffffff16146114da576040517f08c379a00000000000000000000000000000000000000000000000000000000081526004016114d19061237f565b60405180910390fd5b50565b6115097f4910fdfa16fed3260ed0e7147f7cc6da11a60208b5b9406d12a635614ffd914360001b6118fd565b60000160009054906101000a900460ff161561152d5761152883611907565b611646565b8273ffffffffffffffffffffffffffffffffffffffff166352d1902d6040518163ffffffff1660e01b8152600401602060405180830381865afa92505050801561159557506040513d601f19601f82011682018060405250810190611592919061288a565b60015b6115d4576040517f08c379a00000000000000000000000000000000000000000000000000000000081526004016115cb90612929565b60405180910390fd5b7f360894a13ba1a3210667c828492db98dca3e2076cc3735a920a3ca505d382bbc60001b8114611639576040517f08c379a0000000000000000000000000000000000000000000000000000000008152600401611630906129bb565b60405180910390fd5b506116458383836119c0565b5b505050565b6116e18160405160240161165f9190611c85565b6040516020818303038152906040527ff5b1bba9000000000000000000000000000000000000000000000000000000007bffffffffffffffffffffffffffffffffffffffffffffffffffffffff19166020820180517bffffffffffffffffffffffffffffffffffffffffffffffffffffffff83818316178352505050506119ec565b50565b6000609760009054906101000a900473ffffffffffffffffffffffffffffffffffffffff16905081609760006101000a81548173ffffffffffffffffffffffffffffffffffffffff021916908373ffffffffffffffffffffffffffffffffffffffff1602179055508173ffffffffffffffffffffffffffffffffffffffff168173ffffffffffffffffffffffffffffffffffffffff167f8be0079c531659141344cd1fd0a4f28419497f9722a3daafe3b4186f6b6457e060405160405180910390a35050565b60008060019054906101000a900460ff16156118215760018260ff161480156117d957506117d730611a15565b155b611818576040517f08c379a000000000000000000000000000000000000000000000000000000000815260040161180f90612a4d565b60405180910390fd5b60009050611895565b8160ff1660008054906101000a900460ff1660ff1610611876576040517f08c379a000000000000000000000000000000000000000000000000000000000815260040161186d90612a4d565b60405180910390fd5b816000806101000a81548160ff021916908360ff160217905550600190505b919050565b600060019054906101000a900460ff166118e9576040517f08c379a00000000000000000000000000000000000000000000000000000000081526004016118e090612adf565b60405180910390fd5b6118f1611a38565b565b6000819050919050565b6000819050919050565b61191081611a15565b61194f576040517f08c379a000000000000000000000000000000000000000000000000000000000815260040161194690612b71565b60405180910390fd5b8061197c7f360894a13ba1a3210667c828492db98dca3e2076cc3735a920a3ca505d382bbc60001b6118f3565b60000160006101000a81548173ffffffffffffffffffffffffffffffffffffffff021916908373ffffffffffffffffffffffffffffffffffffffff16021790555050565b6119c983611a99565b6000825111806119d65750805b156119e7576119e58383611ae8565b505b505050565b60008151905060006a636f6e736f6c652e6c6f679050602083016000808483855afa5050505050565b6000808273ffffffffffffffffffffffffffffffffffffffff163b119050919050565b600060019054906101000a900460ff16611a87576040517f08c379a0000000000000000000000000000000000000000000000000000000008152600401611a7e90612adf565b60405180910390fd5b611a97611a926113ff565b6116e4565b565b611aa281611907565b8073ffffffffffffffffffffffffffffffffffffffff167fbc7cd75a20ee27fd9adebab32041f755214dbc6bffa90cc0225b39da2e5c2d3b60405160405180910390a250565b6060611af383611a15565b611b32576040517f08c379a0000000000000000000000000000000000000000000000000000000008152600401611b2990612c03565b60405180910390fd5b6000808473ffffffffffffffffffffffffffffffffffffffff1684604051611b5a9190612c9d565b600060405180830381855af49150503d8060008114611b95576040519150601f19603f3d011682016040523d82523d6000602084013e611b9a565b606091505b5091509150611bc28282604051806060016040528060278152602001612d1b60279139611bcc565b9250505092915050565b60608315611bdc57829050611c2c565b600083511115611bef5782518084602001fd5b816040517f08c379a0000000000000000000000000000000000000000000000000000000008152600401611c239190612cf8565b60405180910390fd5b9392505050565b6040518060a001604052806000815260200160008152602001600061ffff168152602001600061ffff1681526020016000151581525090565b6000819050919050565b611c7f81611c6c565b82525050565b6000602082019050611c9a6000830184611c76565b92915050565b6000604051905090565b600080fd5b600080fd5b600061ffff82169050919050565b611ccb81611cb4565b8114611cd657600080fd5b50565b600081359050611ce881611cc2565b92915050565b600060208284031215611d0457611d03611caa565b5b6000611d1284828501611cd9565b91505092915050565b611d2481611c6c565b8114611d2f57600080fd5b50565b600081359050611d4181611d1b565b92915050565b600060208284031215611d5d57611d5c611caa565b5b6000611d6b84828501611d32565b91505092915050565b600073ffffffffffffffffffffffffffffffffffffffff82169050919050565b6000611d9f82611d74565b9050919050565b611daf81611d94565b8114611dba57600080fd5b50565b600081359050611dcc81611da6565b92915050565b600060208284031215611de857611de7611caa565b5b6000611df684828501611dbd565b91505092915050565b600080fd5b600080fd5b6000601f19601f8301169050919050565b7f4e487b7100000000000000000000000000000000000000000000000000000000600052604160045260246000fd5b611e5282611e09565b810181811067ffffffffffffffff82111715611e7157611e70611e1a565b5b80604052505050565b6000611e84611ca0565b9050611e908282611e49565b919050565b600067ffffffffffffffff821115611eb057611eaf611e1a565b5b611eb982611e09565b9050602081019050919050565b82818337600083830152505050565b6000611ee8611ee384611e95565b611e7a565b905082815260208101848484011115611f0457611f03611e04565b5b611f0f848285611ec6565b509392505050565b600082601f830112611f2c57611f2b611dff565b5b8135611f3c848260208601611ed5565b91505092915050565b60008060408385031215611f5c57611f5b611caa565b5b6000611f6a85828601611dbd565b925050602083013567ffffffffffffffff811115611f8b57611f8a611caf565b5b611f9785828601611f17565b9150509250929050565b6000819050919050565b611fb481611fa1565b82525050565b6000602082019050611fcf6000830184611fab565b92915050565b60008060408385031215611fec57611feb611caa565b5b6000611ffa85828601611cd9565b925050602061200b85828601611d32565b9150509250929050565b61201e81611d94565b82525050565b60006020820190506120396000830184612015565b92915050565b61204881611c6c565b82525050565b61205781611cb4565b82525050565b60008115159050919050565b6120728161205d565b82525050565b60a08201600082015161208e600085018261203f565b5060208201516120a1602085018261203f565b5060408201516120b4604085018261204e565b5060608201516120c7606085018261204e565b5060808201516120da6080850182612069565b50505050565b600060a0820190506120f56000830184612078565b92915050565b6000806040838503121561211257612111611caa565b5b600061212085828601611dbd565b925050602061213185828601611cd9565b9150509250929050565b600082825260208201905092915050565b7f4e6f20656e6f75676820756e6974730000000000000000000000000000000000600082015250565b6000612182600f8361213b565b915061218d8261214c565b602082019050919050565b600060208201905081810360008301526121b181612175565b9050919050565b600067ffffffffffffffff82169050919050565b7f4e487b7100000000000000000000000000000000000000000000000000000000600052601160045260246000fd5b6000612206826121b8565b9150612211836121b8565b92508167ffffffffffffffff0483118215151615612232576122316121cc565b5b828202905092915050565b600061224882611c6c565b915061225383611c6c565b9250827fffffffffffffffffffffffffffffffffffffffffffffffffffffffffffffffff03821115612288576122876121cc565b5b828201905092915050565b7f496e636f727265637420616d6f756e742073656e740000000000000000000000600082015250565b60006122c960158361213b565b91506122d482612293565b602082019050919050565b600060208201905081810360008301526122f8816122bc565b9050919050565b600061230a82611c6c565b915061231583611c6c565b925082821015612328576123276121cc565b5b828203905092915050565b7f4f776e61626c653a2063616c6c6572206973206e6f7420746865206f776e6572600082015250565b600061236960208361213b565b915061237482612333565b602082019050919050565b600060208201905081810360008301526123988161235c565b9050919050565b60006123aa82611c6c565b91506123b583611c6c565b9250817fffffffffffffffffffffffffffffffffffffffffffffffffffffffffffffffff04831182151516156123ee576123ed6121cc565b5b828202905092915050565b7f46756e6374696f6e206d7573742062652063616c6c6564207468726f7567682060008201527f64656c656761746563616c6c0000000000000000000000000000000000000000602082015250565b6000612455602c8361213b565b9150612460826123f9565b604082019050919050565b6000602082019050818103600083015261248481612448565b9050919050565b7f46756e6374696f6e206d7573742062652063616c6c6564207468726f7567682060008201527f6163746976652070726f78790000000000000000000000000000000000000000602082015250565b60006124e7602c8361213b565b91506124f28261248b565b604082019050919050565b60006020820190508181036000830152612516816124da565b9050919050565b7f4e6f7420656e6f7567682066756e647300000000000000000000000000000000600082015250565b600061255360108361213b565b915061255e8261251d565b602082019050919050565b6000602082019050818103600083015261258281612546565b9050919050565b7f555550535570677261646561626c653a206d757374206e6f742062652063616c60008201527f6c6564207468726f7567682064656c656761746563616c6c0000000000000000602082015250565b60006125e560388361213b565b91506125f082612589565b604082019050919050565b60006020820190508181036000830152612614816125d8565b9050919050565b7f4e6f7420656e6f75676820756e69747300000000000000000000000000000000600082015250565b600061265160108361213b565b915061265c8261261b565b602082019050919050565b6000602082019050818103600083015261268081612644565b9050919050565b600061269282611cb4565b915061269d83611cb4565b9250828210156126b0576126af6121cc565b5b828203905092915050565b60006126c682611cb4565b91506126d183611cb4565b92508261ffff038211156126e8576126e76121cc565b5b828201905092915050565b6000819050919050565b600060ff82169050919050565b6000819050919050565b600061272f61272a612725846126f3565b61270a565b6126fd565b9050919050565b61273f81612714565b82525050565b600060208201905061275a6000830184612736565b92915050565b7f4e6f7420656e6f75676820756e69747320666f722073616c6500000000000000600082015250565b600061279660198361213b565b91506127a182612760565b602082019050919050565b600060208201905081810360008301526127c581612789565b9050919050565b7f4f776e61626c653a206e6577206f776e657220697320746865207a65726f206160008201527f6464726573730000000000000000000000000000000000000000000000000000602082015250565b600061282860268361213b565b9150612833826127cc565b604082019050919050565b600060208201905081810360008301526128578161281b565b9050919050565b61286781611fa1565b811461287257600080fd5b50565b6000815190506128848161285e565b92915050565b6000602082840312156128a05761289f611caa565b5b60006128ae84828501612875565b91505092915050565b7f45524331393637557067726164653a206e657720696d706c656d656e7461746960008201527f6f6e206973206e6f742055555053000000000000000000000000000000000000602082015250565b6000612913602e8361213b565b915061291e826128b7565b604082019050919050565b6000602082019050818103600083015261294281612906565b9050919050565b7f45524331393637557067726164653a20756e737570706f727465642070726f7860008201527f6961626c65555549440000000000000000000000000000000000000000000000602082015250565b60006129a560298361213b565b91506129b082612949565b604082019050919050565b600060208201905081810360008301526129d481612998565b9050919050565b7f496e697469616c697a61626c653a20636f6e747261637420697320616c72656160008201527f647920696e697469616c697a6564000000000000000000000000000000000000602082015250565b6000612a37602e8361213b565b9150612a42826129db565b604082019050919050565b60006020820190508181036000830152612a6681612a2a565b9050919050565b7f496e697469616c697a61626c653a20636f6e7472616374206973206e6f74206960008201527f6e697469616c697a696e67000000000000000000000000000000000000000000602082015250565b6000612ac9602b8361213b565b9150612ad482612a6d565b604082019050919050565b60006020820190508181036000830152612af881612abc565b9050919050565b7f455243313936373a206e657720696d706c656d656e746174696f6e206973206e60008201527f6f74206120636f6e747261637400000000000000000000000000000000000000602082015250565b6000612b5b602d8361213b565b9150612b6682612aff565b604082019050919050565b60006020820190508181036000830152612b8a81612b4e565b9050919050565b7f416464726573733a2064656c65676174652063616c6c20746f206e6f6e2d636f60008201527f6e74726163740000000000000000000000000000000000000000000000000000602082015250565b6000612bed60268361213b565b9150612bf882612b91565b604082019050919050565b60006020820190508181036000830152612c1c81612be0565b9050919050565b600081519050919050565b600081905092915050565b60005b83811015612c57578082015181840152602081019050612c3c565b83811115612c66576000848401525b50505050565b6000612c7782612c23565b612c818185612c2e565b9350612c91818560208601612c39565b80840191505092915050565b6000612ca98284612c6c565b915081905092915050565b600081519050919050565b6000612cca82612cb4565b612cd4818561213b565b9350612ce4818560208601612c39565b612ced81611e09565b840191505092915050565b60006020820190508181036000830152612d128184612cbf565b90509291505056fe416464726573733a206c6f772d6c6576656c2064656c65676174652063616c6c206661696c6564a2646970667358221220131cdac0e1fe089d124dbd041806bba025a9e91b056a40614638bc6501fd4d9b64736f6c634300080a0033",
  "linkReferences": {},
  "deployedLinkReferences": {}
}