{
    "_format": "hh-sol-artifact-1",
    "contractName": "UnitTrust",
    "sourceName": "contracts/UnitTrust.sol",
    "abi": [
        {
            "anonymous": false,
            "inputs": [
                {
                    "indexed": false,
                    "internalType": "address",
                    "name": "previousAdmin",
                    "type": "address"
                },
                {
                    "indexed": false,
                    "internalType": "address",
                    "name": "newAdmin",
                    "type": "address"
                }
            ],
            "name": "AdminChanged",
            "type": "event"
        },
        {
            "anonymous": false,
            "inputs": [
                {
                    "indexed": true,
                    "internalType": "address",
                    "name": "beacon",
                    "type": "address"
                }
            ],
            "name": "BeaconUpgraded",
            "type": "event"
        },
        {
            "anonymous": false,
            "inputs": [
                {
                    "indexed": false,
                    "internalType": "uint8",
                    "name": "version",
                    "type": "uint8"
                }
            ],
            "name": "Initialized",
            "type": "event"
        },
        {
            "anonymous": false,
            "inputs": [
                {
                    "indexed": true,
                    "internalType": "address",
                    "name": "previousOwner",
                    "type": "address"
                },
                {
                    "indexed": true,
                    "internalType": "address",
                    "name": "newOwner",
                    "type": "address"
                }
            ],
            "name": "OwnershipTransferred",
            "type": "event"
        },
        {
            "anonymous": false,
            "inputs": [
                {
                    "indexed": true,
                    "internalType": "address",
                    "name": "implementation",
                    "type": "address"
                }
            ],
            "name": "Upgraded",
            "type": "event"
        },
        {
            "inputs": [
                {
                    "internalType": "address",
                    "name": "_investor",
                    "type": "address"
                }
            ],
            "name": "getInvestor",
            "outputs": [
                {
                    "components": [
                        {
                            "internalType": "uint256",
                            "name": "balance",
                            "type": "uint256"
                        },
                        {
                            "internalType": "uint256",
                            "name": "salePrice",
                            "type": "uint256"
                        },
                        {
                            "internalType": "uint16",
                            "name": "ownedUnits",
                            "type": "uint16"
                        },
                        {
                            "internalType": "uint16",
                            "name": "saleUnits",
                            "type": "uint16"
                        },
                        {
                            "internalType": "bool",
                            "name": "authorized",
                            "type": "bool"
                        }
                    ],
                    "internalType": "struct Investor",
                    "name": "",
                    "type": "tuple"
                }
            ],
            "stateMutability": "view",
            "type": "function"
        },
        {
            "inputs": [],
            "name": "getTotalUnits",
            "outputs": [
                {
                    "internalType": "uint256",
                    "name": "",
                    "type": "uint256"
                }
            ],
            "stateMutability": "view",
            "type": "function"
        },
        {
            "inputs": [],
            "name": "initialize",
            "outputs": [],
            "stateMutability": "nonpayable",
            "type": "function"
        },
        {
            "inputs": [],
            "name": "owner",
            "outputs": [
                {
                    "internalType": "address",
                    "name": "",
                    "type": "address"
                }
            ],
            "stateMutability": "view",
            "type": "function"
        },
        {
            "inputs": [
                {
                    "internalType": "uint16",
                    "name": "_amount",
                    "type": "uint16"
                },
                {
                    "internalType": "uint256",
                    "name": "_salePrice",
                    "type": "uint256"
                }
            ],
            "name": "postUnit",
            "outputs": [],
            "stateMutability": "nonpayable",
            "type": "function"
        },
        {
            "inputs": [],
            "name": "proxiableUUID",
            "outputs": [
                {
                    "internalType": "bytes32",
                    "name": "",
                    "type": "bytes32"
                }
            ],
            "stateMutability": "view",
            "type": "function"
        },
        {
            "inputs": [
                {
                    "internalType": "uint16",
                    "name": "_amount",
                    "type": "uint16"
                }
            ],
            "name": "purchaseUnit",
            "outputs": [],
            "stateMutability": "payable",
            "type": "function"
        },
        {
            "inputs": [],
            "name": "renounceOwnership",
            "outputs": [],
            "stateMutability": "nonpayable",
            "type": "function"
        },
        {
            "inputs": [
                {
                    "internalType": "address",
                    "name": "newOwner",
                    "type": "address"
                }
            ],
            "name": "transferOwnership",
            "outputs": [],
            "stateMutability": "nonpayable",
            "type": "function"
        },
        {
            "inputs": [
                {
                    "internalType": "address",
                    "name": "_seller",
                    "type": "address"
                },
                {
                    "internalType": "uint16",
                    "name": "_amount",
                    "type": "uint16"
                }
            ],
            "name": "transferUnit",
            "outputs": [],
            "stateMutability": "payable",
            "type": "function"
        },
        {
            "inputs": [
                {
                    "internalType": "address",
                    "name": "newImplementation",
                    "type": "address"
                }
            ],
            "name": "upgradeTo",
            "outputs": [],
            "stateMutability": "nonpayable",
            "type": "function"
        },
        {
            "inputs": [
                {
                    "internalType": "address",
                    "name": "newImplementation",
                    "type": "address"
                },
                {
                    "internalType": "bytes",
                    "name": "data",
                    "type": "bytes"
                }
            ],
            "name": "upgradeToAndCall",
            "outputs": [],
            "stateMutability": "payable",
            "type": "function"
        }
    ],
    "bytecode": "0x60a06040523073ffffffffffffffffffffffffffffffffffffffff1660809073ffffffffffffffffffffffffffffffffffffffff1681525034801561004357600080fd5b506080516127a461007b600039600081816103cc0152818161045b01528181610555015281816105e4015261069401526127a46000f3fe6080604052600436106100a75760003560e01c80638129fc1c116100645780638129fc1c146101785780638da5cb5b1461018f5780638f35a75e146101ba578063a754a702146101f7578063cc57733d14610222578063f2fde38b1461023e576100a7565b8063242a37e8146100ac5780633659cfe6146100c85780634f1ef286146100f157806352d1902d1461010d578063587de58b14610138578063715018a614610161575b600080fd5b6100c660048036038101906100c19190611780565b610267565b005b3480156100d457600080fd5b506100ef60048036038101906100ea919061180b565b6103ca565b005b61010b6004803603810190610106919061197e565b610553565b005b34801561011957600080fd5b50610122610690565b60405161012f91906119f3565b60405180910390f35b34801561014457600080fd5b5061015f600480360381019061015a9190611a44565b610749565b005b34801561016d57600080fd5b50610176610979565b005b34801561018457600080fd5b5061018d610a01565b005b34801561019b57600080fd5b506101a4610ad0565b6040516101b19190611a93565b60405180910390f35b3480156101c657600080fd5b506101e160048036038101906101dc919061180b565b610afa565b6040516101ee9190611b4f565b60405180910390f35b34801561020357600080fd5b5061020c610bc5565b6040516102199190611b79565b60405180910390f35b61023c60048036038101906102379190611b94565b610bd2565b005b34801561024a57600080fd5b506102656004803603810190610260919061180b565b610e8f565b005b8061ffff1660c96002015410156102b3576040517f08c379a00000000000000000000000000000000000000000000000000000000081526004016102aa90611c31565b60405180910390fd5b60c960030154670de0b6b3a76400008261ffff166102d19190611c94565b67ffffffffffffffff166102e59190611cd6565b3414610326576040517f08c379a000000000000000000000000000000000000000000000000000000000815260040161031d90611d78565b60405180910390fd5b8060c960050160003373ffffffffffffffffffffffffffffffffffffffff1673ffffffffffffffffffffffffffffffffffffffff16815260200190815260200160002060020160006101000a81548161ffff021916908361ffff1602179055508061ffff1660c9600201600082825461039f9190611d98565b9250508190555060c96003015460c960040160008282546103c09190611cd6565b9250508190555050565b7f000000000000000000000000000000000000000000000000000000000000000073ffffffffffffffffffffffffffffffffffffffff163073ffffffffffffffffffffffffffffffffffffffff161415610459576040517f08c379a000000000000000000000000000000000000000000000000000000000815260040161045090611e3e565b60405180910390fd5b7f000000000000000000000000000000000000000000000000000000000000000073ffffffffffffffffffffffffffffffffffffffff16610498610f87565b73ffffffffffffffffffffffffffffffffffffffff16146104ee576040517f08c379a00000000000000000000000000000000000000000000000000000000081526004016104e590611ed0565b60405180910390fd5b6104f781610fde565b61055081600067ffffffffffffffff81111561051657610515611853565b5b6040519080825280601f01601f1916602001820160405280156105485781602001600182028036833780820191505090505b50600061105d565b50565b7f000000000000000000000000000000000000000000000000000000000000000073ffffffffffffffffffffffffffffffffffffffff163073ffffffffffffffffffffffffffffffffffffffff1614156105e2576040517f08c379a00000000000000000000000000000000000000000000000000000000081526004016105d990611e3e565b60405180910390fd5b7f000000000000000000000000000000000000000000000000000000000000000073ffffffffffffffffffffffffffffffffffffffff16610621610f87565b73ffffffffffffffffffffffffffffffffffffffff1614610677576040517f08c379a000000000000000000000000000000000000000000000000000000000815260040161066e90611ed0565b60405180910390fd5b61068082610fde565b61068c8282600161105d565b5050565b60007f000000000000000000000000000000000000000000000000000000000000000073ffffffffffffffffffffffffffffffffffffffff163073ffffffffffffffffffffffffffffffffffffffff1614610720576040517f08c379a000000000000000000000000000000000000000000000000000000000815260040161071790611f62565b60405180910390fd5b7f360894a13ba1a3210667c828492db98dca3e2076cc3735a920a3ca505d382bbc60001b905090565b8161ffff1660c960050160003373ffffffffffffffffffffffffffffffffffffffff1673ffffffffffffffffffffffffffffffffffffffff16815260200190815260200160002060020160009054906101000a900461ffff1661ffff1610156107e7576040517f08c379a00000000000000000000000000000000000000000000000000000000081526004016107de90611fce565b60405180910390fd5b8161ffff1660c9600201541015610833576040517f08c379a000000000000000000000000000000000000000000000000000000000815260040161082a90611c31565b60405180910390fd5b8160c960050160003373ffffffffffffffffffffffffffffffffffffffff1673ffffffffffffffffffffffffffffffffffffffff16815260200190815260200160002060020160008282829054906101000a900461ffff166108959190611fee565b92506101000a81548161ffff021916908361ffff1602179055508160c960050160003373ffffffffffffffffffffffffffffffffffffffff1673ffffffffffffffffffffffffffffffffffffffff16815260200190815260200160002060020160028282829054906101000a900461ffff166109119190612022565b92506101000a81548161ffff021916908361ffff1602179055508060c960050160003373ffffffffffffffffffffffffffffffffffffffff1673ffffffffffffffffffffffffffffffffffffffff168152602001908152602001600020600101819055505050565b6109816111cb565b73ffffffffffffffffffffffffffffffffffffffff1661099f610ad0565b73ffffffffffffffffffffffffffffffffffffffff16146109f5576040517f08c379a00000000000000000000000000000000000000000000000000000000081526004016109ec906120a6565b60405180910390fd5b6109ff60006111d3565b565b6000610a0d6001611299565b90508015610a31576001600060016101000a81548160ff0219169083151502179055505b610a39611389565b6103e860c9600001819055506103e860c960020181905550670de0b6b3a764000060c960010181905550662386f26fc1000060c9600301819055508015610acd5760008060016101000a81548160ff0219169083151502179055507f7f26b83ff96e1f2b6a682f133852f6798a09c465da95921460cefb38474024986001604051610ac49190612118565b60405180910390a15b50565b6000609760009054906101000a900473ffffffffffffffffffffffffffffffffffffffff16905090565b610b026116f9565b60c960050160008373ffffffffffffffffffffffffffffffffffffffff1673ffffffffffffffffffffffffffffffffffffffff1681526020019081526020016000206040518060a001604052908160008201548152602001600182015481526020016002820160009054906101000a900461ffff1661ffff1661ffff1681526020016002820160029054906101000a900461ffff1661ffff1661ffff1681526020016002820160049054906101000a900460ff1615151515815250509050919050565b600060c960000154905090565b60c96003015460c960050160008473ffffffffffffffffffffffffffffffffffffffff1673ffffffffffffffffffffffffffffffffffffffff168152602001908152602001600020600101548261ffff16610c2d9190612133565b610c379190611cd6565b3414610c78576040517f08c379a0000000000000000000000000000000000000000000000000000000008152600401610c6f90611d78565b60405180910390fd5b8061ffff1660c960050160008473ffffffffffffffffffffffffffffffffffffffff1673ffffffffffffffffffffffffffffffffffffffff16815260200190815260200160002060020160029054906101000a900461ffff1661ffff161015610d16576040517f08c379a0000000000000000000000000000000000000000000000000000000008152600401610d0d906121d9565b60405180910390fd5b3460c960050160008473ffffffffffffffffffffffffffffffffffffffff1673ffffffffffffffffffffffffffffffffffffffff1681526020019081526020016000206000016000828254610d6b9190611cd6565b925050819055508060c960050160008473ffffffffffffffffffffffffffffffffffffffff1673ffffffffffffffffffffffffffffffffffffffff16815260200190815260200160002060020160028282829054906101000a900461ffff16610dd49190611fee565b92506101000a81548161ffff021916908361ffff1602179055508060c960050160003373ffffffffffffffffffffffffffffffffffffffff1673ffffffffffffffffffffffffffffffffffffffff16815260200190815260200160002060020160008282829054906101000a900461ffff16610e509190612022565b92506101000a81548161ffff021916908361ffff16021790555060c96003015460c96004016000828254610e849190611cd6565b925050819055505050565b610e976111cb565b73ffffffffffffffffffffffffffffffffffffffff16610eb5610ad0565b73ffffffffffffffffffffffffffffffffffffffff1614610f0b576040517f08c379a0000000000000000000000000000000000000000000000000000000008152600401610f02906120a6565b60405180910390fd5b600073ffffffffffffffffffffffffffffffffffffffff168173ffffffffffffffffffffffffffffffffffffffff161415610f7b576040517f08c379a0000000000000000000000000000000000000000000000000000000008152600401610f729061226b565b60405180910390fd5b610f84816111d3565b50565b6000610fb57f360894a13ba1a3210667c828492db98dca3e2076cc3735a920a3ca505d382bbc60001b6113e2565b60000160009054906101000a900473ffffffffffffffffffffffffffffffffffffffff16905090565b610fe66111cb565b73ffffffffffffffffffffffffffffffffffffffff16611004610ad0565b73ffffffffffffffffffffffffffffffffffffffff161461105a576040517f08c379a0000000000000000000000000000000000000000000000000000000008152600401611051906120a6565b60405180910390fd5b50565b6110897f4910fdfa16fed3260ed0e7147f7cc6da11a60208b5b9406d12a635614ffd914360001b6113ec565b60000160009054906101000a900460ff16156110ad576110a8836113f6565b6111c6565b8273ffffffffffffffffffffffffffffffffffffffff166352d1902d6040518163ffffffff1660e01b8152600401602060405180830381865afa92505050801561111557506040513d601f19601f8201168201806040525081019061111291906122b7565b60015b611154576040517f08c379a000000000000000000000000000000000000000000000000000000000815260040161114b90612356565b60405180910390fd5b7f360894a13ba1a3210667c828492db98dca3e2076cc3735a920a3ca505d382bbc60001b81146111b9576040517f08c379a00000000000000000000000000000000000000000000000000000000081526004016111b0906123e8565b60405180910390fd5b506111c58383836114af565b5b505050565b600033905090565b6000609760009054906101000a900473ffffffffffffffffffffffffffffffffffffffff16905081609760006101000a81548173ffffffffffffffffffffffffffffffffffffffff021916908373ffffffffffffffffffffffffffffffffffffffff1602179055508173ffffffffffffffffffffffffffffffffffffffff168173ffffffffffffffffffffffffffffffffffffffff167f8be0079c531659141344cd1fd0a4f28419497f9722a3daafe3b4186f6b6457e060405160405180910390a35050565b60008060019054906101000a900460ff16156113105760018260ff161480156112c857506112c6306114db565b155b611307576040517f08c379a00000000000000000000000000000000000000000000000000000000081526004016112fe9061247a565b60405180910390fd5b60009050611384565b8160ff1660008054906101000a900460ff1660ff1610611365576040517f08c379a000000000000000000000000000000000000000000000000000000000815260040161135c9061247a565b60405180910390fd5b816000806101000a81548160ff021916908360ff160217905550600190505b919050565b600060019054906101000a900460ff166113d8576040517f08c379a00000000000000000000000000000000000000000000000000000000081526004016113cf9061250c565b60405180910390fd5b6113e06114fe565b565b6000819050919050565b6000819050919050565b6113ff816114db565b61143e576040517f08c379a00000000000000000000000000000000000000000000000000000000081526004016114359061259e565b60405180910390fd5b8061146b7f360894a13ba1a3210667c828492db98dca3e2076cc3735a920a3ca505d382bbc60001b6113e2565b60000160006101000a81548173ffffffffffffffffffffffffffffffffffffffff021916908373ffffffffffffffffffffffffffffffffffffffff16021790555050565b6114b88361155f565b6000825111806114c55750805b156114d6576114d483836115ae565b505b505050565b6000808273ffffffffffffffffffffffffffffffffffffffff163b119050919050565b600060019054906101000a900460ff1661154d576040517f08c379a00000000000000000000000000000000000000000000000000000000081526004016115449061250c565b60405180910390fd5b61155d6115586111cb565b6111d3565b565b611568816113f6565b8073ffffffffffffffffffffffffffffffffffffffff167fbc7cd75a20ee27fd9adebab32041f755214dbc6bffa90cc0225b39da2e5c2d3b60405160405180910390a250565b60606115b9836114db565b6115f8576040517f08c379a00000000000000000000000000000000000000000000000000000000081526004016115ef90612630565b60405180910390fd5b6000808473ffffffffffffffffffffffffffffffffffffffff168460405161162091906126ca565b600060405180830381855af49150503d806000811461165b576040519150601f19603f3d011682016040523d82523d6000602084013e611660565b606091505b5091509150611688828260405180606001604052806027815260200161274860279139611692565b9250505092915050565b606083156116a2578290506116f2565b6000835111156116b55782518084602001fd5b816040517f08c379a00000000000000000000000000000000000000000000000000000000081526004016116e99190612725565b60405180910390fd5b9392505050565b6040518060a001604052806000815260200160008152602001600061ffff168152602001600061ffff1681526020016000151581525090565b6000604051905090565b600080fd5b600080fd5b600061ffff82169050919050565b61175d81611746565b811461176857600080fd5b50565b60008135905061177a81611754565b92915050565b6000602082840312156117965761179561173c565b5b60006117a48482850161176b565b91505092915050565b600073ffffffffffffffffffffffffffffffffffffffff82169050919050565b60006117d8826117ad565b9050919050565b6117e8816117cd565b81146117f357600080fd5b50565b600081359050611805816117df565b92915050565b6000602082840312156118215761182061173c565b5b600061182f848285016117f6565b91505092915050565b600080fd5b600080fd5b6000601f19601f8301169050919050565b7f4e487b7100000000000000000000000000000000000000000000000000000000600052604160045260246000fd5b61188b82611842565b810181811067ffffffffffffffff821117156118aa576118a9611853565b5b80604052505050565b60006118bd611732565b90506118c98282611882565b919050565b600067ffffffffffffffff8211156118e9576118e8611853565b5b6118f282611842565b9050602081019050919050565b82818337600083830152505050565b600061192161191c846118ce565b6118b3565b90508281526020810184848401111561193d5761193c61183d565b5b6119488482856118ff565b509392505050565b600082601f83011261196557611964611838565b5b813561197584826020860161190e565b91505092915050565b600080604083850312156119955761199461173c565b5b60006119a3858286016117f6565b925050602083013567ffffffffffffffff8111156119c4576119c3611741565b5b6119d085828601611950565b9150509250929050565b6000819050919050565b6119ed816119da565b82525050565b6000602082019050611a0860008301846119e4565b92915050565b6000819050919050565b611a2181611a0e565b8114611a2c57600080fd5b50565b600081359050611a3e81611a18565b92915050565b60008060408385031215611a5b57611a5a61173c565b5b6000611a698582860161176b565b9250506020611a7a85828601611a2f565b9150509250929050565b611a8d816117cd565b82525050565b6000602082019050611aa86000830184611a84565b92915050565b611ab781611a0e565b82525050565b611ac681611746565b82525050565b60008115159050919050565b611ae181611acc565b82525050565b60a082016000820151611afd6000850182611aae565b506020820151611b106020850182611aae565b506040820151611b236040850182611abd565b506060820151611b366060850182611abd565b506080820151611b496080850182611ad8565b50505050565b600060a082019050611b646000830184611ae7565b92915050565b611b7381611a0e565b82525050565b6000602082019050611b8e6000830184611b6a565b92915050565b60008060408385031215611bab57611baa61173c565b5b6000611bb9858286016117f6565b9250506020611bca8582860161176b565b9150509250929050565b600082825260208201905092915050565b7f4e6f20656e6f75676820756e6974730000000000000000000000000000000000600082015250565b6000611c1b600f83611bd4565b9150611c2682611be5565b602082019050919050565b60006020820190508181036000830152611c4a81611c0e565b9050919050565b600067ffffffffffffffff82169050919050565b7f4e487b7100000000000000000000000000000000000000000000000000000000600052601160045260246000fd5b6000611c9f82611c51565b9150611caa83611c51565b92508167ffffffffffffffff0483118215151615611ccb57611cca611c65565b5b828202905092915050565b6000611ce182611a0e565b9150611cec83611a0e565b9250827fffffffffffffffffffffffffffffffffffffffffffffffffffffffffffffffff03821115611d2157611d20611c65565b5b828201905092915050565b7f496e636f727265637420616d6f756e742073656e740000000000000000000000600082015250565b6000611d62601583611bd4565b9150611d6d82611d2c565b602082019050919050565b60006020820190508181036000830152611d9181611d55565b9050919050565b6000611da382611a0e565b9150611dae83611a0e565b925082821015611dc157611dc0611c65565b5b828203905092915050565b7f46756e6374696f6e206d7573742062652063616c6c6564207468726f7567682060008201527f64656c656761746563616c6c0000000000000000000000000000000000000000602082015250565b6000611e28602c83611bd4565b9150611e3382611dcc565b604082019050919050565b60006020820190508181036000830152611e5781611e1b565b9050919050565b7f46756e6374696f6e206d7573742062652063616c6c6564207468726f7567682060008201527f6163746976652070726f78790000000000000000000000000000000000000000602082015250565b6000611eba602c83611bd4565b9150611ec582611e5e565b604082019050919050565b60006020820190508181036000830152611ee981611ead565b9050919050565b7f555550535570677261646561626c653a206d757374206e6f742062652063616c60008201527f6c6564207468726f7567682064656c656761746563616c6c0000000000000000602082015250565b6000611f4c603883611bd4565b9150611f5782611ef0565b604082019050919050565b60006020820190508181036000830152611f7b81611f3f565b9050919050565b7f4e6f7420656e6f75676820756e69747300000000000000000000000000000000600082015250565b6000611fb8601083611bd4565b9150611fc382611f82565b602082019050919050565b60006020820190508181036000830152611fe781611fab565b9050919050565b6000611ff982611746565b915061200483611746565b92508282101561201757612016611c65565b5b828203905092915050565b600061202d82611746565b915061203883611746565b92508261ffff0382111561204f5761204e611c65565b5b828201905092915050565b7f4f776e61626c653a2063616c6c6572206973206e6f7420746865206f776e6572600082015250565b6000612090602083611bd4565b915061209b8261205a565b602082019050919050565b600060208201905081810360008301526120bf81612083565b9050919050565b6000819050919050565b600060ff82169050919050565b6000819050919050565b60006121026120fd6120f8846120c6565b6120dd565b6120d0565b9050919050565b612112816120e7565b82525050565b600060208201905061212d6000830184612109565b92915050565b600061213e82611a0e565b915061214983611a0e565b9250817fffffffffffffffffffffffffffffffffffffffffffffffffffffffffffffffff048311821515161561218257612181611c65565b5b828202905092915050565b7f4e6f7420656e6f75676820756e69747320666f722073616c6500000000000000600082015250565b60006121c3601983611bd4565b91506121ce8261218d565b602082019050919050565b600060208201905081810360008301526121f2816121b6565b9050919050565b7f4f776e61626c653a206e6577206f776e657220697320746865207a65726f206160008201527f6464726573730000000000000000000000000000000000000000000000000000602082015250565b6000612255602683611bd4565b9150612260826121f9565b604082019050919050565b6000602082019050818103600083015261228481612248565b9050919050565b612294816119da565b811461229f57600080fd5b50565b6000815190506122b18161228b565b92915050565b6000602082840312156122cd576122cc61173c565b5b60006122db848285016122a2565b91505092915050565b7f45524331393637557067726164653a206e657720696d706c656d656e7461746960008201527f6f6e206973206e6f742055555053000000000000000000000000000000000000602082015250565b6000612340602e83611bd4565b915061234b826122e4565b604082019050919050565b6000602082019050818103600083015261236f81612333565b9050919050565b7f45524331393637557067726164653a20756e737570706f727465642070726f7860008201527f6961626c65555549440000000000000000000000000000000000000000000000602082015250565b60006123d2602983611bd4565b91506123dd82612376565b604082019050919050565b60006020820190508181036000830152612401816123c5565b9050919050565b7f496e697469616c697a61626c653a20636f6e747261637420697320616c72656160008201527f647920696e697469616c697a6564000000000000000000000000000000000000602082015250565b6000612464602e83611bd4565b915061246f82612408565b604082019050919050565b6000602082019050818103600083015261249381612457565b9050919050565b7f496e697469616c697a61626c653a20636f6e7472616374206973206e6f74206960008201527f6e697469616c697a696e67000000000000000000000000000000000000000000602082015250565b60006124f6602b83611bd4565b91506125018261249a565b604082019050919050565b60006020820190508181036000830152612525816124e9565b9050919050565b7f455243313936373a206e657720696d706c656d656e746174696f6e206973206e60008201527f6f74206120636f6e747261637400000000000000000000000000000000000000602082015250565b6000612588602d83611bd4565b91506125938261252c565b604082019050919050565b600060208201905081810360008301526125b78161257b565b9050919050565b7f416464726573733a2064656c65676174652063616c6c20746f206e6f6e2d636f60008201527f6e74726163740000000000000000000000000000000000000000000000000000602082015250565b600061261a602683611bd4565b9150612625826125be565b604082019050919050565b600060208201905081810360008301526126498161260d565b9050919050565b600081519050919050565b600081905092915050565b60005b83811015612684578082015181840152602081019050612669565b83811115612693576000848401525b50505050565b60006126a482612650565b6126ae818561265b565b93506126be818560208601612666565b80840191505092915050565b60006126d68284612699565b915081905092915050565b600081519050919050565b60006126f7826126e1565b6127018185611bd4565b9350612711818560208601612666565b61271a81611842565b840191505092915050565b6000602082019050818103600083015261273f81846126ec565b90509291505056fe416464726573733a206c6f772d6c6576656c2064656c65676174652063616c6c206661696c6564a2646970667358221220708ad65ed5a491b32fd2aadbc9b14fbe861ad821e7847821bb0e6b176dedb55d64736f6c634300080a0033",
    "linkReferences": {},
    "deployedLinkReferences": {}
}