{
  "_format": "hh-sol-artifact-1",
  "contractName": "UnitTrust",
  "sourceName": "contracts/UnitTrust.sol",
  "abi": [
    {
      "anonymous": false,
      "inputs": [
        {
          "indexed": false,
          "internalType": "address",
          "name": "previousAdmin",
          "type": "address"
        },
        {
          "indexed": false,
          "internalType": "address",
          "name": "newAdmin",
          "type": "address"
        }
      ],
      "name": "AdminChanged",
      "type": "event"
    },
    {
      "anonymous": false,
      "inputs": [
        {
          "indexed": true,
          "internalType": "address",
          "name": "beacon",
          "type": "address"
        }
      ],
      "name": "BeaconUpgraded",
      "type": "event"
    },
    {
      "anonymous": false,
      "inputs": [
        {
          "indexed": false,
          "internalType": "uint8",
          "name": "version",
          "type": "uint8"
        }
      ],
      "name": "Initialized",
      "type": "event"
    },
    {
      "anonymous": false,
      "inputs": [
        {
          "indexed": true,
          "internalType": "address",
          "name": "previousOwner",
          "type": "address"
        },
        {
          "indexed": true,
          "internalType": "address",
          "name": "newOwner",
          "type": "address"
        }
      ],
      "name": "OwnershipTransferred",
      "type": "event"
    },
    {
      "anonymous": false,
      "inputs": [
        {
          "indexed": true,
          "internalType": "address",
          "name": "implementation",
          "type": "address"
        }
      ],
      "name": "Upgraded",
      "type": "event"
    },
    {
      "inputs": [
        {
          "internalType": "uint256",
          "name": "_amount",
          "type": "uint256"
        }
      ],
      "name": "closeUnitTrust",
      "outputs": [],
      "stateMutability": "payable",
      "type": "function"
    },
    {
      "inputs": [
        {
          "internalType": "address",
          "name": "_investor",
          "type": "address"
        }
      ],
      "name": "getInvestor",
      "outputs": [
        {
          "components": [
            {
              "internalType": "uint256",
              "name": "balance",
              "type": "uint256"
            },
            {
              "internalType": "uint256",
              "name": "salePrice",
              "type": "uint256"
            },
            {
              "internalType": "uint16",
              "name": "ownedUnits",
              "type": "uint16"
            },
            {
              "internalType": "uint16",
              "name": "saleUnits",
              "type": "uint16"
            },
            {
              "internalType": "bool",
              "name": "authorized",
              "type": "bool"
            }
          ],
          "internalType": "struct Investor",
          "name": "",
          "type": "tuple"
        }
      ],
      "stateMutability": "view",
      "type": "function"
    },
    {
      "inputs": [],
      "name": "getRemainingUnits",
      "outputs": [
        {
          "internalType": "uint256",
          "name": "",
          "type": "uint256"
        }
      ],
      "stateMutability": "view",
      "type": "function"
    },
    {
      "inputs": [],
      "name": "getTotalUnits",
      "outputs": [
        {
          "internalType": "uint256",
          "name": "",
          "type": "uint256"
        }
      ],
      "stateMutability": "view",
      "type": "function"
    },
    {
      "inputs": [],
      "name": "initialize",
      "outputs": [],
      "stateMutability": "nonpayable",
      "type": "function"
    },
    {
      "inputs": [],
      "name": "owner",
      "outputs": [
        {
          "internalType": "address",
          "name": "",
          "type": "address"
        }
      ],
      "stateMutability": "view",
      "type": "function"
    },
    {
      "inputs": [
        {
          "internalType": "uint16",
          "name": "_amount",
          "type": "uint16"
        },
        {
          "internalType": "uint256",
          "name": "_salePrice",
          "type": "uint256"
        }
      ],
      "name": "postUnit",
      "outputs": [],
      "stateMutability": "nonpayable",
      "type": "function"
    },
    {
      "inputs": [],
      "name": "proxiableUUID",
      "outputs": [
        {
          "internalType": "bytes32",
          "name": "",
          "type": "bytes32"
        }
      ],
      "stateMutability": "view",
      "type": "function"
    },
    {
      "inputs": [
        {
          "internalType": "uint16",
          "name": "_amount",
          "type": "uint16"
        }
      ],
      "name": "purchaseUnit",
      "outputs": [],
      "stateMutability": "payable",
      "type": "function"
    },
    {
      "inputs": [],
      "name": "renounceOwnership",
      "outputs": [],
      "stateMutability": "nonpayable",
      "type": "function"
    },
    {
      "inputs": [
        {
          "internalType": "address",
          "name": "newOwner",
          "type": "address"
        }
      ],
      "name": "transferOwnership",
      "outputs": [],
      "stateMutability": "nonpayable",
      "type": "function"
    },
    {
      "inputs": [
        {
          "internalType": "address",
          "name": "_seller",
          "type": "address"
        },
        {
          "internalType": "uint16",
          "name": "_amount",
          "type": "uint16"
        }
      ],
      "name": "transferUnit",
      "outputs": [],
      "stateMutability": "payable",
      "type": "function"
    },
    {
      "inputs": [
        {
          "internalType": "address",
          "name": "newImplementation",
          "type": "address"
        }
      ],
      "name": "upgradeTo",
      "outputs": [],
      "stateMutability": "nonpayable",
      "type": "function"
    },
    {
      "inputs": [
        {
          "internalType": "address",
          "name": "newImplementation",
          "type": "address"
        },
        {
          "internalType": "bytes",
          "name": "data",
          "type": "bytes"
        }
      ],
      "name": "upgradeToAndCall",
      "outputs": [],
      "stateMutability": "payable",
      "type": "function"
    },
    {
      "inputs": [
        {
          "internalType": "uint256",
          "name": "_amount",
          "type": "uint256"
        }
      ],
      "name": "withdraw",
      "outputs": [],
      "stateMutability": "payable",
      "type": "function"
    }
  ],
  "bytecode": "0x60a06040523073ffffffffffffffffffffffffffffffffffffffff1660809073ffffffffffffffffffffffffffffffffffffffff1681525034801561004357600080fd5b50608051612bd961007b600039600081816106990152818161072801528181610822015281816108b101526109610152612bd96000f3fe6080604052600436106100e85760003560e01c8063715018a61161008a57806393e4a0ca1161005957806393e4a0ca14610270578063a754a7021461029b578063cc57733d146102c6578063f2fde38b146102e2576100e8565b8063715018a6146101da5780638129fc1c146101f15780638da5cb5b146102085780638f35a75e14610233576100e8565b80633659cfe6116100c65780633659cfe6146101415780634f1ef2861461016a57806352d1902d14610186578063587de58b146101b1576100e8565b8063242a37e8146100ed578063243f6337146101095780632e1a7d4d14610125575b600080fd5b61010760048036038101906101029190611b1c565b61030b565b005b610123600480360381019061011e9190611b7f565b61046e565b005b61013f600480360381019061013a9190611b7f565b61055f565b005b34801561014d57600080fd5b5061016860048036038101906101639190611c0a565b610697565b005b610184600480360381019061017f9190611d7d565b610820565b005b34801561019257600080fd5b5061019b61095d565b6040516101a89190611df2565b60405180910390f35b3480156101bd57600080fd5b506101d860048036038101906101d39190611e0d565b610a16565b005b3480156101e657600080fd5b506101ef610c46565b005b3480156101fd57600080fd5b50610206610cce565b005b34801561021457600080fd5b5061021d610d9d565b60405161022a9190611e5c565b60405180910390f35b34801561023f57600080fd5b5061025a60048036038101906102559190611c0a565b610dc7565b6040516102679190611f18565b60405180910390f35b34801561027c57600080fd5b50610285610e92565b6040516102929190611f42565b60405180910390f35b3480156102a757600080fd5b506102b0610e9f565b6040516102bd9190611f42565b60405180910390f35b6102e060048036038101906102db9190611f5d565b610eac565b005b3480156102ee57600080fd5b5061030960048036038101906103049190611c0a565b611169565b005b8061ffff1660c9600201541015610357576040517f08c379a000000000000000000000000000000000000000000000000000000000815260040161034e90611ffa565b60405180910390fd5b60c960030154670de0b6b3a76400008261ffff16610375919061205d565b67ffffffffffffffff16610389919061209f565b34146103ca576040517f08c379a00000000000000000000000000000000000000000000000000000000081526004016103c190612141565b60405180910390fd5b8060c960050160003373ffffffffffffffffffffffffffffffffffffffff1673ffffffffffffffffffffffffffffffffffffffff16815260200190815260200160002060020160006101000a81548161ffff021916908361ffff1602179055508061ffff1660c960020160008282546104439190612161565b9250508190555060c96003015460c96004016000828254610464919061209f565b9250508190555050565b610476611261565b73ffffffffffffffffffffffffffffffffffffffff16610494610d9d565b73ffffffffffffffffffffffffffffffffffffffff16146104ea576040517f08c379a00000000000000000000000000000000000000000000000000000000081526004016104e1906121e1565b60405180910390fd5b3373ffffffffffffffffffffffffffffffffffffffff166108fc60c96002015460c96000015461051a9190612161565b836105259190612201565b9081150290604051600060405180830381858888f19350505050158015610550573d6000803e3d6000fd5b50600060c96002018190555050565b610567611261565b73ffffffffffffffffffffffffffffffffffffffff16610585610d9d565b73ffffffffffffffffffffffffffffffffffffffff16146105db576040517f08c379a00000000000000000000000000000000000000000000000000000000081526004016105d2906121e1565b60405180910390fd5b8060c9600401541015610623576040517f08c379a000000000000000000000000000000000000000000000000000000000815260040161061a906122a7565b60405180910390fd5b61063160c960040154611269565b3373ffffffffffffffffffffffffffffffffffffffff166108fc829081150290604051600060405180830381858888f19350505050158015610677573d6000803e3d6000fd5b508060c9600401600082825461068d9190612161565b9250508190555050565b7f000000000000000000000000000000000000000000000000000000000000000073ffffffffffffffffffffffffffffffffffffffff163073ffffffffffffffffffffffffffffffffffffffff161415610726576040517f08c379a000000000000000000000000000000000000000000000000000000000815260040161071d90612339565b60405180910390fd5b7f000000000000000000000000000000000000000000000000000000000000000073ffffffffffffffffffffffffffffffffffffffff16610765611302565b73ffffffffffffffffffffffffffffffffffffffff16146107bb576040517f08c379a00000000000000000000000000000000000000000000000000000000081526004016107b2906123cb565b60405180910390fd5b6107c481611359565b61081d81600067ffffffffffffffff8111156107e3576107e2611c52565b5b6040519080825280601f01601f1916602001820160405280156108155781602001600182028036833780820191505090505b5060006113d8565b50565b7f000000000000000000000000000000000000000000000000000000000000000073ffffffffffffffffffffffffffffffffffffffff163073ffffffffffffffffffffffffffffffffffffffff1614156108af576040517f08c379a00000000000000000000000000000000000000000000000000000000081526004016108a690612339565b60405180910390fd5b7f000000000000000000000000000000000000000000000000000000000000000073ffffffffffffffffffffffffffffffffffffffff166108ee611302565b73ffffffffffffffffffffffffffffffffffffffff1614610944576040517f08c379a000000000000000000000000000000000000000000000000000000000815260040161093b906123cb565b60405180910390fd5b61094d82611359565b610959828260016113d8565b5050565b60007f000000000000000000000000000000000000000000000000000000000000000073ffffffffffffffffffffffffffffffffffffffff163073ffffffffffffffffffffffffffffffffffffffff16146109ed576040517f08c379a00000000000000000000000000000000000000000000000000000000081526004016109e49061245d565b60405180910390fd5b7f360894a13ba1a3210667c828492db98dca3e2076cc3735a920a3ca505d382bbc60001b905090565b8161ffff1660c960050160003373ffffffffffffffffffffffffffffffffffffffff1673ffffffffffffffffffffffffffffffffffffffff16815260200190815260200160002060020160009054906101000a900461ffff1661ffff161015610ab4576040517f08c379a0000000000000000000000000000000000000000000000000000000008152600401610aab906124c9565b60405180910390fd5b8161ffff1660c9600201541015610b00576040517f08c379a0000000000000000000000000000000000000000000000000000000008152600401610af790611ffa565b60405180910390fd5b8160c960050160003373ffffffffffffffffffffffffffffffffffffffff1673ffffffffffffffffffffffffffffffffffffffff16815260200190815260200160002060020160008282829054906101000a900461ffff16610b6291906124e9565b92506101000a81548161ffff021916908361ffff1602179055508160c960050160003373ffffffffffffffffffffffffffffffffffffffff1673ffffffffffffffffffffffffffffffffffffffff16815260200190815260200160002060020160028282829054906101000a900461ffff16610bde919061251d565b92506101000a81548161ffff021916908361ffff1602179055508060c960050160003373ffffffffffffffffffffffffffffffffffffffff1673ffffffffffffffffffffffffffffffffffffffff168152602001908152602001600020600101819055505050565b610c4e611261565b73ffffffffffffffffffffffffffffffffffffffff16610c6c610d9d565b73ffffffffffffffffffffffffffffffffffffffff1614610cc2576040517f08c379a0000000000000000000000000000000000000000000000000000000008152600401610cb9906121e1565b60405180910390fd5b610ccc6000611546565b565b6000610cda600161160c565b90508015610cfe576001600060016101000a81548160ff0219169083151502179055505b610d066116fc565b6103e860c9600001819055506103e860c960020181905550670de0b6b3a764000060c960010181905550662386f26fc1000060c9600301819055508015610d9a5760008060016101000a81548160ff0219169083151502179055507f7f26b83ff96e1f2b6a682f133852f6798a09c465da95921460cefb38474024986001604051610d9191906125a7565b60405180910390a15b50565b6000609760009054906101000a900473ffffffffffffffffffffffffffffffffffffffff16905090565b610dcf611a95565b60c960050160008373ffffffffffffffffffffffffffffffffffffffff1673ffffffffffffffffffffffffffffffffffffffff1681526020019081526020016000206040518060a001604052908160008201548152602001600182015481526020016002820160009054906101000a900461ffff1661ffff1661ffff1681526020016002820160029054906101000a900461ffff1661ffff1661ffff1681526020016002820160049054906101000a900460ff1615151515815250509050919050565b600060c960000154905090565b600060c960000154905090565b60c96003015460c960050160008473ffffffffffffffffffffffffffffffffffffffff1673ffffffffffffffffffffffffffffffffffffffff168152602001908152602001600020600101548261ffff16610f079190612201565b610f11919061209f565b3414610f52576040517f08c379a0000000000000000000000000000000000000000000000000000000008152600401610f4990612141565b60405180910390fd5b8061ffff1660c960050160008473ffffffffffffffffffffffffffffffffffffffff1673ffffffffffffffffffffffffffffffffffffffff16815260200190815260200160002060020160029054906101000a900461ffff1661ffff161015610ff0576040517f08c379a0000000000000000000000000000000000000000000000000000000008152600401610fe79061260e565b60405180910390fd5b3460c960050160008473ffffffffffffffffffffffffffffffffffffffff1673ffffffffffffffffffffffffffffffffffffffff1681526020019081526020016000206000016000828254611045919061209f565b925050819055508060c960050160008473ffffffffffffffffffffffffffffffffffffffff1673ffffffffffffffffffffffffffffffffffffffff16815260200190815260200160002060020160028282829054906101000a900461ffff166110ae91906124e9565b92506101000a81548161ffff021916908361ffff1602179055508060c960050160003373ffffffffffffffffffffffffffffffffffffffff1673ffffffffffffffffffffffffffffffffffffffff16815260200190815260200160002060020160008282829054906101000a900461ffff1661112a919061251d565b92506101000a81548161ffff021916908361ffff16021790555060c96003015460c9600401600082825461115e919061209f565b925050819055505050565b611171611261565b73ffffffffffffffffffffffffffffffffffffffff1661118f610d9d565b73ffffffffffffffffffffffffffffffffffffffff16146111e5576040517f08c379a00000000000000000000000000000000000000000000000000000000081526004016111dc906121e1565b60405180910390fd5b600073ffffffffffffffffffffffffffffffffffffffff168173ffffffffffffffffffffffffffffffffffffffff161415611255576040517f08c379a000000000000000000000000000000000000000000000000000000000815260040161124c906126a0565b60405180910390fd5b61125e81611546565b50565b600033905090565b6112ff8160405160240161127d9190611f42565b6040516020818303038152906040527ff5b1bba9000000000000000000000000000000000000000000000000000000007bffffffffffffffffffffffffffffffffffffffffffffffffffffffff19166020820180517bffffffffffffffffffffffffffffffffffffffffffffffffffffffff8381831617835250505050611755565b50565b60006113307f360894a13ba1a3210667c828492db98dca3e2076cc3735a920a3ca505d382bbc60001b61177e565b60000160009054906101000a900473ffffffffffffffffffffffffffffffffffffffff16905090565b611361611261565b73ffffffffffffffffffffffffffffffffffffffff1661137f610d9d565b73ffffffffffffffffffffffffffffffffffffffff16146113d5576040517f08c379a00000000000000000000000000000000000000000000000000000000081526004016113cc906121e1565b60405180910390fd5b50565b6114047f4910fdfa16fed3260ed0e7147f7cc6da11a60208b5b9406d12a635614ffd914360001b611788565b60000160009054906101000a900460ff16156114285761142383611792565b611541565b8273ffffffffffffffffffffffffffffffffffffffff166352d1902d6040518163ffffffff1660e01b8152600401602060405180830381865afa92505050801561149057506040513d601f19601f8201168201806040525081019061148d91906126ec565b60015b6114cf576040517f08c379a00000000000000000000000000000000000000000000000000000000081526004016114c69061278b565b60405180910390fd5b7f360894a13ba1a3210667c828492db98dca3e2076cc3735a920a3ca505d382bbc60001b8114611534576040517f08c379a000000000000000000000000000000000000000000000000000000000815260040161152b9061281d565b60405180910390fd5b5061154083838361184b565b5b505050565b6000609760009054906101000a900473ffffffffffffffffffffffffffffffffffffffff16905081609760006101000a81548173ffffffffffffffffffffffffffffffffffffffff021916908373ffffffffffffffffffffffffffffffffffffffff1602179055508173ffffffffffffffffffffffffffffffffffffffff168173ffffffffffffffffffffffffffffffffffffffff167f8be0079c531659141344cd1fd0a4f28419497f9722a3daafe3b4186f6b6457e060405160405180910390a35050565b60008060019054906101000a900460ff16156116835760018260ff1614801561163b575061163930611877565b155b61167a576040517f08c379a0000000000000000000000000000000000000000000000000000000008152600401611671906128af565b60405180910390fd5b600090506116f7565b8160ff1660008054906101000a900460ff1660ff16106116d8576040517f08c379a00000000000000000000000000000000000000000000000000000000081526004016116cf906128af565b60405180910390fd5b816000806101000a81548160ff021916908360ff160217905550600190505b919050565b600060019054906101000a900460ff1661174b576040517f08c379a000000000000000000000000000000000000000000000000000000000815260040161174290612941565b60405180910390fd5b61175361189a565b565b60008151905060006a636f6e736f6c652e6c6f679050602083016000808483855afa5050505050565b6000819050919050565b6000819050919050565b61179b81611877565b6117da576040517f08c379a00000000000000000000000000000000000000000000000000000000081526004016117d1906129d3565b60405180910390fd5b806118077f360894a13ba1a3210667c828492db98dca3e2076cc3735a920a3ca505d382bbc60001b61177e565b60000160006101000a81548173ffffffffffffffffffffffffffffffffffffffff021916908373ffffffffffffffffffffffffffffffffffffffff16021790555050565b611854836118fb565b6000825111806118615750805b1561187257611870838361194a565b505b505050565b6000808273ffffffffffffffffffffffffffffffffffffffff163b119050919050565b600060019054906101000a900460ff166118e9576040517f08c379a00000000000000000000000000000000000000000000000000000000081526004016118e090612941565b60405180910390fd5b6118f96118f4611261565b611546565b565b61190481611792565b8073ffffffffffffffffffffffffffffffffffffffff167fbc7cd75a20ee27fd9adebab32041f755214dbc6bffa90cc0225b39da2e5c2d3b60405160405180910390a250565b606061195583611877565b611994576040517f08c379a000000000000000000000000000000000000000000000000000000000815260040161198b90612a65565b60405180910390fd5b6000808473ffffffffffffffffffffffffffffffffffffffff16846040516119bc9190612aff565b600060405180830381855af49150503d80600081146119f7576040519150601f19603f3d011682016040523d82523d6000602084013e6119fc565b606091505b5091509150611a248282604051806060016040528060278152602001612b7d60279139611a2e565b9250505092915050565b60608315611a3e57829050611a8e565b600083511115611a515782518084602001fd5b816040517f08c379a0000000000000000000000000000000000000000000000000000000008152600401611a859190612b5a565b60405180910390fd5b9392505050565b6040518060a001604052806000815260200160008152602001600061ffff168152602001600061ffff1681526020016000151581525090565b6000604051905090565b600080fd5b600080fd5b600061ffff82169050919050565b611af981611ae2565b8114611b0457600080fd5b50565b600081359050611b1681611af0565b92915050565b600060208284031215611b3257611b31611ad8565b5b6000611b4084828501611b07565b91505092915050565b6000819050919050565b611b5c81611b49565b8114611b6757600080fd5b50565b600081359050611b7981611b53565b92915050565b600060208284031215611b9557611b94611ad8565b5b6000611ba384828501611b6a565b91505092915050565b600073ffffffffffffffffffffffffffffffffffffffff82169050919050565b6000611bd782611bac565b9050919050565b611be781611bcc565b8114611bf257600080fd5b50565b600081359050611c0481611bde565b92915050565b600060208284031215611c2057611c1f611ad8565b5b6000611c2e84828501611bf5565b91505092915050565b600080fd5b600080fd5b6000601f19601f8301169050919050565b7f4e487b7100000000000000000000000000000000000000000000000000000000600052604160045260246000fd5b611c8a82611c41565b810181811067ffffffffffffffff82111715611ca957611ca8611c52565b5b80604052505050565b6000611cbc611ace565b9050611cc88282611c81565b919050565b600067ffffffffffffffff821115611ce857611ce7611c52565b5b611cf182611c41565b9050602081019050919050565b82818337600083830152505050565b6000611d20611d1b84611ccd565b611cb2565b905082815260208101848484011115611d3c57611d3b611c3c565b5b611d47848285611cfe565b509392505050565b600082601f830112611d6457611d63611c37565b5b8135611d74848260208601611d0d565b91505092915050565b60008060408385031215611d9457611d93611ad8565b5b6000611da285828601611bf5565b925050602083013567ffffffffffffffff811115611dc357611dc2611add565b5b611dcf85828601611d4f565b9150509250929050565b6000819050919050565b611dec81611dd9565b82525050565b6000602082019050611e076000830184611de3565b92915050565b60008060408385031215611e2457611e23611ad8565b5b6000611e3285828601611b07565b9250506020611e4385828601611b6a565b9150509250929050565b611e5681611bcc565b82525050565b6000602082019050611e716000830184611e4d565b92915050565b611e8081611b49565b82525050565b611e8f81611ae2565b82525050565b60008115159050919050565b611eaa81611e95565b82525050565b60a082016000820151611ec66000850182611e77565b506020820151611ed96020850182611e77565b506040820151611eec6040850182611e86565b506060820151611eff6060850182611e86565b506080820151611f126080850182611ea1565b50505050565b600060a082019050611f2d6000830184611eb0565b92915050565b611f3c81611b49565b82525050565b6000602082019050611f576000830184611f33565b92915050565b60008060408385031215611f7457611f73611ad8565b5b6000611f8285828601611bf5565b9250506020611f9385828601611b07565b9150509250929050565b600082825260208201905092915050565b7f4e6f20656e6f75676820756e6974730000000000000000000000000000000000600082015250565b6000611fe4600f83611f9d565b9150611fef82611fae565b602082019050919050565b6000602082019050818103600083015261201381611fd7565b9050919050565b600067ffffffffffffffff82169050919050565b7f4e487b7100000000000000000000000000000000000000000000000000000000600052601160045260246000fd5b60006120688261201a565b91506120738361201a565b92508167ffffffffffffffff04831182151516156120945761209361202e565b5b828202905092915050565b60006120aa82611b49565b91506120b583611b49565b9250827fffffffffffffffffffffffffffffffffffffffffffffffffffffffffffffffff038211156120ea576120e961202e565b5b828201905092915050565b7f496e636f727265637420616d6f756e742073656e740000000000000000000000600082015250565b600061212b601583611f9d565b9150612136826120f5565b602082019050919050565b6000602082019050818103600083015261215a8161211e565b9050919050565b600061216c82611b49565b915061217783611b49565b92508282101561218a5761218961202e565b5b828203905092915050565b7f4f776e61626c653a2063616c6c6572206973206e6f7420746865206f776e6572600082015250565b60006121cb602083611f9d565b91506121d682612195565b602082019050919050565b600060208201905081810360008301526121fa816121be565b9050919050565b600061220c82611b49565b915061221783611b49565b9250817fffffffffffffffffffffffffffffffffffffffffffffffffffffffffffffffff04831182151516156122505761224f61202e565b5b828202905092915050565b7f4e6f7420656e6f7567682066756e647300000000000000000000000000000000600082015250565b6000612291601083611f9d565b915061229c8261225b565b602082019050919050565b600060208201905081810360008301526122c081612284565b9050919050565b7f46756e6374696f6e206d7573742062652063616c6c6564207468726f7567682060008201527f64656c656761746563616c6c0000000000000000000000000000000000000000602082015250565b6000612323602c83611f9d565b915061232e826122c7565b604082019050919050565b6000602082019050818103600083015261235281612316565b9050919050565b7f46756e6374696f6e206d7573742062652063616c6c6564207468726f7567682060008201527f6163746976652070726f78790000000000000000000000000000000000000000602082015250565b60006123b5602c83611f9d565b91506123c082612359565b604082019050919050565b600060208201905081810360008301526123e4816123a8565b9050919050565b7f555550535570677261646561626c653a206d757374206e6f742062652063616c60008201527f6c6564207468726f7567682064656c656761746563616c6c0000000000000000602082015250565b6000612447603883611f9d565b9150612452826123eb565b604082019050919050565b600060208201905081810360008301526124768161243a565b9050919050565b7f4e6f7420656e6f75676820756e69747300000000000000000000000000000000600082015250565b60006124b3601083611f9d565b91506124be8261247d565b602082019050919050565b600060208201905081810360008301526124e2816124a6565b9050919050565b60006124f482611ae2565b91506124ff83611ae2565b9250828210156125125761251161202e565b5b828203905092915050565b600061252882611ae2565b915061253383611ae2565b92508261ffff0382111561254a5761254961202e565b5b828201905092915050565b6000819050919050565b600060ff82169050919050565b6000819050919050565b600061259161258c61258784612555565b61256c565b61255f565b9050919050565b6125a181612576565b82525050565b60006020820190506125bc6000830184612598565b92915050565b7f4e6f7420656e6f75676820756e69747320666f722073616c6500000000000000600082015250565b60006125f8601983611f9d565b9150612603826125c2565b602082019050919050565b60006020820190508181036000830152612627816125eb565b9050919050565b7f4f776e61626c653a206e6577206f776e657220697320746865207a65726f206160008201527f6464726573730000000000000000000000000000000000000000000000000000602082015250565b600061268a602683611f9d565b91506126958261262e565b604082019050919050565b600060208201905081810360008301526126b98161267d565b9050919050565b6126c981611dd9565b81146126d457600080fd5b50565b6000815190506126e6816126c0565b92915050565b60006020828403121561270257612701611ad8565b5b6000612710848285016126d7565b91505092915050565b7f45524331393637557067726164653a206e657720696d706c656d656e7461746960008201527f6f6e206973206e6f742055555053000000000000000000000000000000000000602082015250565b6000612775602e83611f9d565b915061278082612719565b604082019050919050565b600060208201905081810360008301526127a481612768565b9050919050565b7f45524331393637557067726164653a20756e737570706f727465642070726f7860008201527f6961626c65555549440000000000000000000000000000000000000000000000602082015250565b6000612807602983611f9d565b9150612812826127ab565b604082019050919050565b60006020820190508181036000830152612836816127fa565b9050919050565b7f496e697469616c697a61626c653a20636f6e747261637420697320616c72656160008201527f647920696e697469616c697a6564000000000000000000000000000000000000602082015250565b6000612899602e83611f9d565b91506128a48261283d565b604082019050919050565b600060208201905081810360008301526128c88161288c565b9050919050565b7f496e697469616c697a61626c653a20636f6e7472616374206973206e6f74206960008201527f6e697469616c697a696e67000000000000000000000000000000000000000000602082015250565b600061292b602b83611f9d565b9150612936826128cf565b604082019050919050565b6000602082019050818103600083015261295a8161291e565b9050919050565b7f455243313936373a206e657720696d706c656d656e746174696f6e206973206e60008201527f6f74206120636f6e747261637400000000000000000000000000000000000000602082015250565b60006129bd602d83611f9d565b91506129c882612961565b604082019050919050565b600060208201905081810360008301526129ec816129b0565b9050919050565b7f416464726573733a2064656c65676174652063616c6c20746f206e6f6e2d636f60008201527f6e74726163740000000000000000000000000000000000000000000000000000602082015250565b6000612a4f602683611f9d565b9150612a5a826129f3565b604082019050919050565b60006020820190508181036000830152612a7e81612a42565b9050919050565b600081519050919050565b600081905092915050565b60005b83811015612ab9578082015181840152602081019050612a9e565b83811115612ac8576000848401525b50505050565b6000612ad982612a85565b612ae38185612a90565b9350612af3818560208601612a9b565b80840191505092915050565b6000612b0b8284612ace565b915081905092915050565b600081519050919050565b6000612b2c82612b16565b612b368185611f9d565b9350612b46818560208601612a9b565b612b4f81611c41565b840191505092915050565b60006020820190508181036000830152612b748184612b21565b90509291505056fe416464726573733a206c6f772d6c6576656c2064656c65676174652063616c6c206661696c6564a26469706673582212200985813f142d1fe9c52b9cb31e7299ec1f0b046bbf38c89ece83d5bcf213e52964736f6c634300080a0033",
  "linkReferences": {},
  "deployedLinkReferences": {}
}